{
	"contracts/rps.sol": {
		"Demo": {
			"abi": [
				{
					"inputs": [],
					"stateMutability": "nonpayable",
					"type": "constructor"
				},
				{
					"inputs": [],
					"name": "changeToPaper",
					"outputs": [],
					"stateMutability": "nonpayable",
					"type": "function"
				},
				{
					"inputs": [],
					"name": "changeToRock",
					"outputs": [],
					"stateMutability": "nonpayable",
					"type": "function"
				},
				{
					"inputs": [],
					"name": "changeToScissors",
					"outputs": [],
					"stateMutability": "nonpayable",
					"type": "function"
				},
				{
					"inputs": [],
					"name": "deposit",
					"outputs": [],
					"stateMutability": "payable",
					"type": "function"
				},
				{
					"inputs": [],
					"name": "getAddress",
					"outputs": [
						{
							"internalType": "address",
							"name": "",
							"type": "address"
						}
					],
					"stateMutability": "view",
					"type": "function"
				},
				{
					"inputs": [],
					"name": "getBalance",
					"outputs": [
						{
							"internalType": "uint256",
							"name": "",
							"type": "uint256"
						}
					],
					"stateMutability": "view",
					"type": "function"
				},
				{
					"inputs": [],
					"name": "getPlayersChoose",
					"outputs": [
						{
							"internalType": "string",
							"name": "",
							"type": "string"
						}
					],
					"stateMutability": "view",
					"type": "function"
				},
				{
					"inputs": [],
					"name": "playersChoose",
					"outputs": [
						{
							"internalType": "string",
							"name": "",
							"type": "string"
						}
					],
					"stateMutability": "view",
					"type": "function"
				},
				{
					"inputs": [
						{
							"internalType": "address payable",
							"name": "_to",
							"type": "address"
						},
						{
							"internalType": "uint256",
							"name": "_amount",
							"type": "uint256"
						}
					],
					"name": "withdraw",
					"outputs": [],
					"stateMutability": "nonpayable",
					"type": "function"
				}
			],
			"devdoc": {
				"kind": "dev",
				"methods": {},
				"version": 1
			},
			"evm": {
				"assembly": "    /* \"contracts/rps.sol\":57:882  contract Demo {... */\n  mstore(0x40, 0x80)\n    /* \"contracts/rps.sol\":77:109  string public playersChoose = \"\" */\n  mload(0x40)\n  dup1\n  0x20\n  add\n  0x40\n  mstore\n  dup1\n  0x00\n  dup2\n  mstore\n  pop\n  0x00\n  swap1\n  dup2\n  tag_1\n  swap2\n  swap1\n  tag_2\n  jump\t// in\ntag_1:\n  pop\n    /* \"contracts/rps.sol\":115:165  constructor () {... */\n  callvalue\n  dup1\n  iszero\n  tag_3\n  jumpi\n  0x00\n  dup1\n  revert\ntag_3:\n  pop\n    /* \"contracts/rps.sol\":140:158  playersChoose = \"\" */\n  mload(0x40)\n  dup1\n  0x20\n  add\n  0x40\n  mstore\n  dup1\n  0x00\n  dup2\n  mstore\n  pop\n    /* \"contracts/rps.sol\":140:153  playersChoose */\n  0x00\n    /* \"contracts/rps.sol\":140:158  playersChoose = \"\" */\n  swap1\n  dup2\n  tag_6\n  swap2\n  swap1\n  tag_2\n  jump\t// in\ntag_6:\n  pop\n    /* \"contracts/rps.sol\":57:882  contract Demo {... */\n  jump(tag_7)\n    /* \"#utility.yul\":7:106   */\ntag_8:\n    /* \"#utility.yul\":59:65   */\n  0x00\n    /* \"#utility.yul\":93:98   */\n  dup2\n    /* \"#utility.yul\":87:99   */\n  mload\n    /* \"#utility.yul\":77:99   */\n  swap1\n  pop\n    /* \"#utility.yul\":7:106   */\n  swap2\n  swap1\n  pop\n  jump\t// out\n    /* \"#utility.yul\":112:292   */\ntag_9:\n    /* \"#utility.yul\":160:237   */\n  0x4e487b7100000000000000000000000000000000000000000000000000000000\n    /* \"#utility.yul\":157:158   */\n  0x00\n    /* \"#utility.yul\":150:238   */\n  mstore\n    /* \"#utility.yul\":257:261   */\n  0x41\n    /* \"#utility.yul\":254:255   */\n  0x04\n    /* \"#utility.yul\":247:262   */\n  mstore\n    /* \"#utility.yul\":281:285   */\n  0x24\n    /* \"#utility.yul\":278:279   */\n  0x00\n    /* \"#utility.yul\":271:286   */\n  revert\n    /* \"#utility.yul\":298:478   */\ntag_10:\n    /* \"#utility.yul\":346:423   */\n  0x4e487b7100000000000000000000000000000000000000000000000000000000\n    /* \"#utility.yul\":343:344   */\n  0x00\n    /* \"#utility.yul\":336:424   */\n  mstore\n    /* \"#utility.yul\":443:447   */\n  0x22\n    /* \"#utility.yul\":440:441   */\n  0x04\n    /* \"#utility.yul\":433:448   */\n  mstore\n    /* \"#utility.yul\":467:471   */\n  0x24\n    /* \"#utility.yul\":464:465   */\n  0x00\n    /* \"#utility.yul\":457:472   */\n  revert\n    /* \"#utility.yul\":484:804   */\ntag_11:\n    /* \"#utility.yul\":528:534   */\n  0x00\n    /* \"#utility.yul\":565:566   */\n  0x02\n    /* \"#utility.yul\":559:563   */\n  dup3\n    /* \"#utility.yul\":555:567   */\n  div\n    /* \"#utility.yul\":545:567   */\n  swap1\n  pop\n    /* \"#utility.yul\":612:613   */\n  0x01\n    /* \"#utility.yul\":606:610   */\n  dup3\n    /* \"#utility.yul\":602:614   */\n  and\n    /* \"#utility.yul\":633:651   */\n  dup1\n    /* \"#utility.yul\":623:704   */\n  tag_33\n  jumpi\n    /* \"#utility.yul\":689:693   */\n  0x7f\n    /* \"#utility.yul\":681:687   */\n  dup3\n    /* \"#utility.yul\":677:694   */\n  and\n    /* \"#utility.yul\":667:694   */\n  swap2\n  pop\n    /* \"#utility.yul\":623:704   */\ntag_33:\n    /* \"#utility.yul\":751:753   */\n  0x20\n    /* \"#utility.yul\":743:749   */\n  dup3\n    /* \"#utility.yul\":740:754   */\n  lt\n    /* \"#utility.yul\":720:738   */\n  dup2\n    /* \"#utility.yul\":717:755   */\n  sub\n    /* \"#utility.yul\":714:798   */\n  tag_34\n  jumpi\n    /* \"#utility.yul\":770:788   */\n  tag_35\n  tag_10\n  jump\t// in\ntag_35:\n    /* \"#utility.yul\":714:798   */\ntag_34:\n    /* \"#utility.yul\":535:804   */\n  pop\n    /* \"#utility.yul\":484:804   */\n  swap2\n  swap1\n  pop\n  jump\t// out\n    /* \"#utility.yul\":810:951   */\ntag_12:\n    /* \"#utility.yul\":859:863   */\n  0x00\n    /* \"#utility.yul\":882:885   */\n  dup2\n    /* \"#utility.yul\":874:885   */\n  swap1\n  pop\n    /* \"#utility.yul\":905:908   */\n  dup2\n    /* \"#utility.yul\":902:903   */\n  0x00\n    /* \"#utility.yul\":895:909   */\n  mstore\n    /* \"#utility.yul\":939:943   */\n  0x20\n    /* \"#utility.yul\":936:937   */\n  0x00\n    /* \"#utility.yul\":926:944   */\n  keccak256\n    /* \"#utility.yul\":918:944   */\n  swap1\n  pop\n    /* \"#utility.yul\":810:951   */\n  swap2\n  swap1\n  pop\n  jump\t// out\n    /* \"#utility.yul\":957:1050   */\ntag_13:\n    /* \"#utility.yul\":994:1000   */\n  0x00\n    /* \"#utility.yul\":1041:1043   */\n  0x20\n    /* \"#utility.yul\":1036:1038   */\n  0x1f\n    /* \"#utility.yul\":1029:1034   */\n  dup4\n    /* \"#utility.yul\":1025:1039   */\n  add\n    /* \"#utility.yul\":1021:1044   */\n  div\n    /* \"#utility.yul\":1011:1044   */\n  swap1\n  pop\n    /* \"#utility.yul\":957:1050   */\n  swap2\n  swap1\n  pop\n  jump\t// out\n    /* \"#utility.yul\":1056:1163   */\ntag_14:\n    /* \"#utility.yul\":1100:1108   */\n  0x00\n    /* \"#utility.yul\":1150:1155   */\n  dup3\n    /* \"#utility.yul\":1144:1148   */\n  dup3\n    /* \"#utility.yul\":1140:1156   */\n  shl\n    /* \"#utility.yul\":1119:1156   */\n  swap1\n  pop\n    /* \"#utility.yul\":1056:1163   */\n  swap3\n  swap2\n  pop\n  pop\n  jump\t// out\n    /* \"#utility.yul\":1169:1562   */\ntag_15:\n    /* \"#utility.yul\":1238:1244   */\n  0x00\n    /* \"#utility.yul\":1288:1289   */\n  0x08\n    /* \"#utility.yul\":1276:1286   */\n  dup4\n    /* \"#utility.yul\":1272:1290   */\n  mul\n    /* \"#utility.yul\":1311:1408   */\n  tag_40\n    /* \"#utility.yul\":1341:1407   */\n  0xffffffffffffffffffffffffffffffffffffffffffffffffffffffffffffffff\n    /* \"#utility.yul\":1330:1339   */\n  dup3\n    /* \"#utility.yul\":1311:1408   */\n  tag_14\n  jump\t// in\ntag_40:\n    /* \"#utility.yul\":1429:1468   */\n  tag_41\n    /* \"#utility.yul\":1459:1467   */\n  dup7\n    /* \"#utility.yul\":1448:1457   */\n  dup4\n    /* \"#utility.yul\":1429:1468   */\n  tag_14\n  jump\t// in\ntag_41:\n    /* \"#utility.yul\":1417:1468   */\n  swap6\n  pop\n    /* \"#utility.yul\":1501:1505   */\n  dup1\n    /* \"#utility.yul\":1497:1506   */\n  not\n    /* \"#utility.yul\":1490:1495   */\n  dup5\n    /* \"#utility.yul\":1486:1507   */\n  and\n    /* \"#utility.yul\":1477:1507   */\n  swap4\n  pop\n    /* \"#utility.yul\":1550:1554   */\n  dup1\n    /* \"#utility.yul\":1540:1548   */\n  dup7\n    /* \"#utility.yul\":1536:1555   */\n  and\n    /* \"#utility.yul\":1529:1534   */\n  dup5\n    /* \"#utility.yul\":1526:1556   */\n  or\n    /* \"#utility.yul\":1516:1556   */\n  swap3\n  pop\n    /* \"#utility.yul\":1245:1562   */\n  pop\n  pop\n    /* \"#utility.yul\":1169:1562   */\n  swap4\n  swap3\n  pop\n  pop\n  pop\n  jump\t// out\n    /* \"#utility.yul\":1568:1645   */\ntag_16:\n    /* \"#utility.yul\":1605:1612   */\n  0x00\n    /* \"#utility.yul\":1634:1639   */\n  dup2\n    /* \"#utility.yul\":1623:1639   */\n  swap1\n  pop\n    /* \"#utility.yul\":1568:1645   */\n  swap2\n  swap1\n  pop\n  jump\t// out\n    /* \"#utility.yul\":1651:1711   */\ntag_17:\n    /* \"#utility.yul\":1679:1682   */\n  0x00\n    /* \"#utility.yul\":1700:1705   */\n  dup2\n    /* \"#utility.yul\":1693:1705   */\n  swap1\n  pop\n    /* \"#utility.yul\":1651:1711   */\n  swap2\n  swap1\n  pop\n  jump\t// out\n    /* \"#utility.yul\":1717:1859   */\ntag_18:\n    /* \"#utility.yul\":1767:1776   */\n  0x00\n    /* \"#utility.yul\":1800:1853   */\n  tag_45\n    /* \"#utility.yul\":1818:1852   */\n  tag_46\n    /* \"#utility.yul\":1827:1851   */\n  tag_47\n    /* \"#utility.yul\":1845:1850   */\n  dup5\n    /* \"#utility.yul\":1827:1851   */\n  tag_16\n  jump\t// in\ntag_47:\n    /* \"#utility.yul\":1818:1852   */\n  tag_17\n  jump\t// in\ntag_46:\n    /* \"#utility.yul\":1800:1853   */\n  tag_16\n  jump\t// in\ntag_45:\n    /* \"#utility.yul\":1787:1853   */\n  swap1\n  pop\n    /* \"#utility.yul\":1717:1859   */\n  swap2\n  swap1\n  pop\n  jump\t// out\n    /* \"#utility.yul\":1865:1940   */\ntag_19:\n    /* \"#utility.yul\":1908:1911   */\n  0x00\n    /* \"#utility.yul\":1929:1934   */\n  dup2\n    /* \"#utility.yul\":1922:1934   */\n  swap1\n  pop\n    /* \"#utility.yul\":1865:1940   */\n  swap2\n  swap1\n  pop\n  jump\t// out\n    /* \"#utility.yul\":1946:2215   */\ntag_20:\n    /* \"#utility.yul\":2056:2095   */\n  tag_50\n    /* \"#utility.yul\":2087:2094   */\n  dup4\n    /* \"#utility.yul\":2056:2095   */\n  tag_18\n  jump\t// in\ntag_50:\n    /* \"#utility.yul\":2117:2208   */\n  tag_51\n    /* \"#utility.yul\":2166:2207   */\n  tag_52\n    /* \"#utility.yul\":2190:2206   */\n  dup3\n    /* \"#utility.yul\":2166:2207   */\n  tag_19\n  jump\t// in\ntag_52:\n    /* \"#utility.yul\":2158:2164   */\n  dup5\n    /* \"#utility.yul\":2151:2155   */\n  dup5\n    /* \"#utility.yul\":2145:2156   */\n  sload\n    /* \"#utility.yul\":2117:2208   */\n  tag_15\n  jump\t// in\ntag_51:\n    /* \"#utility.yul\":2111:2115   */\n  dup3\n    /* \"#utility.yul\":2104:2209   */\n  sstore\n    /* \"#utility.yul\":2022:2215   */\n  pop\n    /* \"#utility.yul\":1946:2215   */\n  pop\n  pop\n  pop\n  jump\t// out\n    /* \"#utility.yul\":2221:2294   */\ntag_21:\n    /* \"#utility.yul\":2266:2269   */\n  0x00\n    /* \"#utility.yul\":2221:2294   */\n  swap1\n  jump\t// out\n    /* \"#utility.yul\":2300:2489   */\ntag_22:\n    /* \"#utility.yul\":2377:2409   */\n  tag_55\n  tag_21\n  jump\t// in\ntag_55:\n    /* \"#utility.yul\":2418:2483   */\n  tag_56\n    /* \"#utility.yul\":2476:2482   */\n  dup2\n    /* \"#utility.yul\":2468:2474   */\n  dup5\n    /* \"#utility.yul\":2462:2466   */\n  dup5\n    /* \"#utility.yul\":2418:2483   */\n  tag_20\n  jump\t// in\ntag_56:\n    /* \"#utility.yul\":2353:2489   */\n  pop\n    /* \"#utility.yul\":2300:2489   */\n  pop\n  pop\n  jump\t// out\n    /* \"#utility.yul\":2495:2681   */\ntag_23:\n    /* \"#utility.yul\":2555:2675   */\ntag_58:\n    /* \"#utility.yul\":2572:2575   */\n  dup2\n    /* \"#utility.yul\":2565:2570   */\n  dup2\n    /* \"#utility.yul\":2562:2576   */\n  lt\n    /* \"#utility.yul\":2555:2675   */\n  iszero\n  tag_60\n  jumpi\n    /* \"#utility.yul\":2626:2665   */\n  tag_61\n    /* \"#utility.yul\":2663:2664   */\n  0x00\n    /* \"#utility.yul\":2656:2661   */\n  dup3\n    /* \"#utility.yul\":2626:2665   */\n  tag_22\n  jump\t// in\ntag_61:\n    /* \"#utility.yul\":2599:2600   */\n  0x01\n    /* \"#utility.yul\":2592:2597   */\n  dup2\n    /* \"#utility.yul\":2588:2601   */\n  add\n    /* \"#utility.yul\":2579:2601   */\n  swap1\n  pop\n    /* \"#utility.yul\":2555:2675   */\n  jump(tag_58)\ntag_60:\n    /* \"#utility.yul\":2495:2681   */\n  pop\n  pop\n  jump\t// out\n    /* \"#utility.yul\":2687:3230   */\ntag_24:\n    /* \"#utility.yul\":2788:2790   */\n  0x1f\n    /* \"#utility.yul\":2783:2786   */\n  dup3\n    /* \"#utility.yul\":2780:2791   */\n  gt\n    /* \"#utility.yul\":2777:3223   */\n  iszero\n  tag_63\n  jumpi\n    /* \"#utility.yul\":2822:2860   */\n  tag_64\n    /* \"#utility.yul\":2854:2859   */\n  dup2\n    /* \"#utility.yul\":2822:2860   */\n  tag_12\n  jump\t// in\ntag_64:\n    /* \"#utility.yul\":2906:2935   */\n  tag_65\n    /* \"#utility.yul\":2924:2934   */\n  dup5\n    /* \"#utility.yul\":2906:2935   */\n  tag_13\n  jump\t// in\ntag_65:\n    /* \"#utility.yul\":2896:2904   */\n  dup2\n    /* \"#utility.yul\":2892:2936   */\n  add\n    /* \"#utility.yul\":3089:3091   */\n  0x20\n    /* \"#utility.yul\":3077:3087   */\n  dup6\n    /* \"#utility.yul\":3074:3092   */\n  lt\n    /* \"#utility.yul\":3071:3120   */\n  iszero\n  tag_66\n  jumpi\n    /* \"#utility.yul\":3110:3118   */\n  dup2\n    /* \"#utility.yul\":3095:3118   */\n  swap1\n  pop\n    /* \"#utility.yul\":3071:3120   */\ntag_66:\n    /* \"#utility.yul\":3133:3213   */\n  tag_67\n    /* \"#utility.yul\":3189:3211   */\n  tag_68\n    /* \"#utility.yul\":3207:3210   */\n  dup6\n    /* \"#utility.yul\":3189:3211   */\n  tag_13\n  jump\t// in\ntag_68:\n    /* \"#utility.yul\":3179:3187   */\n  dup4\n    /* \"#utility.yul\":3175:3212   */\n  add\n    /* \"#utility.yul\":3162:3173   */\n  dup3\n    /* \"#utility.yul\":3133:3213   */\n  tag_23\n  jump\t// in\ntag_67:\n    /* \"#utility.yul\":2792:3223   */\n  pop\n  pop\n    /* \"#utility.yul\":2777:3223   */\ntag_63:\n    /* \"#utility.yul\":2687:3230   */\n  pop\n  pop\n  pop\n  jump\t// out\n    /* \"#utility.yul\":3236:3353   */\ntag_25:\n    /* \"#utility.yul\":3290:3298   */\n  0x00\n    /* \"#utility.yul\":3340:3345   */\n  dup3\n    /* \"#utility.yul\":3334:3338   */\n  dup3\n    /* \"#utility.yul\":3330:3346   */\n  shr\n    /* \"#utility.yul\":3309:3346   */\n  swap1\n  pop\n    /* \"#utility.yul\":3236:3353   */\n  swap3\n  swap2\n  pop\n  pop\n  jump\t// out\n    /* \"#utility.yul\":3359:3528   */\ntag_26:\n    /* \"#utility.yul\":3403:3409   */\n  0x00\n    /* \"#utility.yul\":3436:3487   */\n  tag_71\n    /* \"#utility.yul\":3484:3485   */\n  0x00\n    /* \"#utility.yul\":3480:3486   */\n  not\n    /* \"#utility.yul\":3472:3477   */\n  dup5\n    /* \"#utility.yul\":3469:3470   */\n  0x08\n    /* \"#utility.yul\":3465:3478   */\n  mul\n    /* \"#utility.yul\":3436:3487   */\n  tag_25\n  jump\t// in\ntag_71:\n    /* \"#utility.yul\":3432:3488   */\n  not\n    /* \"#utility.yul\":3517:3521   */\n  dup1\n    /* \"#utility.yul\":3511:3515   */\n  dup4\n    /* \"#utility.yul\":3507:3522   */\n  and\n    /* \"#utility.yul\":3497:3522   */\n  swap2\n  pop\n    /* \"#utility.yul\":3410:3528   */\n  pop\n    /* \"#utility.yul\":3359:3528   */\n  swap3\n  swap2\n  pop\n  pop\n  jump\t// out\n    /* \"#utility.yul\":3533:3828   */\ntag_27:\n    /* \"#utility.yul\":3609:3613   */\n  0x00\n    /* \"#utility.yul\":3755:3784   */\n  tag_73\n    /* \"#utility.yul\":3780:3783   */\n  dup4\n    /* \"#utility.yul\":3774:3778   */\n  dup4\n    /* \"#utility.yul\":3755:3784   */\n  tag_26\n  jump\t// in\ntag_73:\n    /* \"#utility.yul\":3747:3784   */\n  swap2\n  pop\n    /* \"#utility.yul\":3817:3820   */\n  dup3\n    /* \"#utility.yul\":3814:3815   */\n  0x02\n    /* \"#utility.yul\":3810:3821   */\n  mul\n    /* \"#utility.yul\":3804:3808   */\n  dup3\n    /* \"#utility.yul\":3801:3822   */\n  or\n    /* \"#utility.yul\":3793:3822   */\n  swap1\n  pop\n    /* \"#utility.yul\":3533:3828   */\n  swap3\n  swap2\n  pop\n  pop\n  jump\t// out\n    /* \"#utility.yul\":3833:5228   */\ntag_2:\n    /* \"#utility.yul\":3950:3987   */\n  tag_75\n    /* \"#utility.yul\":3983:3986   */\n  dup3\n    /* \"#utility.yul\":3950:3987   */\n  tag_8\n  jump\t// in\ntag_75:\n    /* \"#utility.yul\":4052:4070   */\n  0xffffffffffffffff\n    /* \"#utility.yul\":4044:4050   */\n  dup2\n    /* \"#utility.yul\":4041:4071   */\n  gt\n    /* \"#utility.yul\":4038:4094   */\n  iszero\n  tag_76\n  jumpi\n    /* \"#utility.yul\":4074:4092   */\n  tag_77\n  tag_9\n  jump\t// in\ntag_77:\n    /* \"#utility.yul\":4038:4094   */\ntag_76:\n    /* \"#utility.yul\":4118:4156   */\n  tag_78\n    /* \"#utility.yul\":4150:4154   */\n  dup3\n    /* \"#utility.yul\":4144:4155   */\n  sload\n    /* \"#utility.yul\":4118:4156   */\n  tag_11\n  jump\t// in\ntag_78:\n    /* \"#utility.yul\":4203:4270   */\n  tag_79\n    /* \"#utility.yul\":4263:4269   */\n  dup3\n    /* \"#utility.yul\":4255:4261   */\n  dup3\n    /* \"#utility.yul\":4249:4253   */\n  dup6\n    /* \"#utility.yul\":4203:4270   */\n  tag_24\n  jump\t// in\ntag_79:\n    /* \"#utility.yul\":4297:4298   */\n  0x00\n    /* \"#utility.yul\":4321:4325   */\n  0x20\n    /* \"#utility.yul\":4308:4325   */\n  swap1\n  pop\n    /* \"#utility.yul\":4353:4355   */\n  0x1f\n    /* \"#utility.yul\":4345:4351   */\n  dup4\n    /* \"#utility.yul\":4342:4356   */\n  gt\n    /* \"#utility.yul\":4370:4371   */\n  0x01\n    /* \"#utility.yul\":4365:4983   */\n  dup2\n  eq\n  tag_81\n  jumpi\n    /* \"#utility.yul\":5027:5028   */\n  0x00\n    /* \"#utility.yul\":5044:5050   */\n  dup5\n    /* \"#utility.yul\":5041:5118   */\n  iszero\n  tag_82\n  jumpi\n    /* \"#utility.yul\":5093:5102   */\n  dup3\n    /* \"#utility.yul\":5088:5091   */\n  dup8\n    /* \"#utility.yul\":5084:5103   */\n  add\n    /* \"#utility.yul\":5078:5104   */\n  mload\n    /* \"#utility.yul\":5069:5104   */\n  swap1\n  pop\n    /* \"#utility.yul\":5041:5118   */\ntag_82:\n    /* \"#utility.yul\":5144:5211   */\n  tag_83\n    /* \"#utility.yul\":5204:5210   */\n  dup6\n    /* \"#utility.yul\":5197:5202   */\n  dup3\n    /* \"#utility.yul\":5144:5211   */\n  tag_27\n  jump\t// in\ntag_83:\n    /* \"#utility.yul\":5138:5142   */\n  dup7\n    /* \"#utility.yul\":5131:5212   */\n  sstore\n    /* \"#utility.yul\":5000:5222   */\n  pop\n    /* \"#utility.yul\":4335:5222   */\n  jump(tag_80)\n    /* \"#utility.yul\":4365:4983   */\ntag_81:\n    /* \"#utility.yul\":4417:4421   */\n  0x1f\n    /* \"#utility.yul\":4413:4422   */\n  not\n    /* \"#utility.yul\":4405:4411   */\n  dup5\n    /* \"#utility.yul\":4401:4423   */\n  and\n    /* \"#utility.yul\":4451:4488   */\n  tag_84\n    /* \"#utility.yul\":4483:4487   */\n  dup7\n    /* \"#utility.yul\":4451:4488   */\n  tag_12\n  jump\t// in\ntag_84:\n    /* \"#utility.yul\":4510:4511   */\n  0x00\n    /* \"#utility.yul\":4524:4732   */\ntag_85:\n    /* \"#utility.yul\":4538:4545   */\n  dup3\n    /* \"#utility.yul\":4535:4536   */\n  dup2\n    /* \"#utility.yul\":4532:4546   */\n  lt\n    /* \"#utility.yul\":4524:4732   */\n  iszero\n  tag_87\n  jumpi\n    /* \"#utility.yul\":4617:4626   */\n  dup5\n    /* \"#utility.yul\":4612:4615   */\n  dup10\n    /* \"#utility.yul\":4608:4627   */\n  add\n    /* \"#utility.yul\":4602:4628   */\n  mload\n    /* \"#utility.yul\":4594:4600   */\n  dup3\n    /* \"#utility.yul\":4587:4629   */\n  sstore\n    /* \"#utility.yul\":4668:4669   */\n  0x01\n    /* \"#utility.yul\":4660:4666   */\n  dup3\n    /* \"#utility.yul\":4656:4670   */\n  add\n    /* \"#utility.yul\":4646:4670   */\n  swap2\n  pop\n    /* \"#utility.yul\":4715:4717   */\n  0x20\n    /* \"#utility.yul\":4704:4713   */\n  dup6\n    /* \"#utility.yul\":4700:4718   */\n  add\n    /* \"#utility.yul\":4687:4718   */\n  swap5\n  pop\n    /* \"#utility.yul\":4561:4565   */\n  0x20\n    /* \"#utility.yul\":4558:4559   */\n  dup2\n    /* \"#utility.yul\":4554:4566   */\n  add\n    /* \"#utility.yul\":4549:4566   */\n  swap1\n  pop\n    /* \"#utility.yul\":4524:4732   */\n  jump(tag_85)\ntag_87:\n    /* \"#utility.yul\":4760:4766   */\n  dup7\n    /* \"#utility.yul\":4751:4758   */\n  dup4\n    /* \"#utility.yul\":4748:4767   */\n  lt\n    /* \"#utility.yul\":4745:4924   */\n  iszero\n  tag_88\n  jumpi\n    /* \"#utility.yul\":4818:4827   */\n  dup5\n    /* \"#utility.yul\":4813:4816   */\n  dup10\n    /* \"#utility.yul\":4809:4828   */\n  add\n    /* \"#utility.yul\":4803:4829   */\n  mload\n    /* \"#utility.yul\":4861:4909   */\n  tag_89\n    /* \"#utility.yul\":4903:4907   */\n  0x1f\n    /* \"#utility.yul\":4895:4901   */\n  dup10\n    /* \"#utility.yul\":4891:4908   */\n  and\n    /* \"#utility.yul\":4880:4889   */\n  dup3\n    /* \"#utility.yul\":4861:4909   */\n  tag_26\n  jump\t// in\ntag_89:\n    /* \"#utility.yul\":4853:4859   */\n  dup4\n    /* \"#utility.yul\":4846:4910   */\n  sstore\n    /* \"#utility.yul\":4768:4924   */\n  pop\n    /* \"#utility.yul\":4745:4924   */\ntag_88:\n    /* \"#utility.yul\":4970:4971   */\n  0x01\n    /* \"#utility.yul\":4966:4967   */\n  0x02\n    /* \"#utility.yul\":4958:4964   */\n  dup9\n    /* \"#utility.yul\":4954:4968   */\n  mul\n    /* \"#utility.yul\":4950:4972   */\n  add\n    /* \"#utility.yul\":4944:4948   */\n  dup9\n    /* \"#utility.yul\":4937:4973   */\n  sstore\n    /* \"#utility.yul\":4372:4983   */\n  pop\n  pop\n  pop\n    /* \"#utility.yul\":4335:5222   */\ntag_80:\n  pop\n    /* \"#utility.yul\":3925:5228   */\n  pop\n  pop\n  pop\n    /* \"#utility.yul\":3833:5228   */\n  pop\n  pop\n  jump\t// out\n    /* \"contracts/rps.sol\":57:882  contract Demo {... */\ntag_7:\n  dataSize(sub_0)\n  dup1\n  dataOffset(sub_0)\n  0x00\n  codecopy\n  0x00\n  return\nstop\n\nsub_0: assembly {\n        /* \"contracts/rps.sol\":57:882  contract Demo {... */\n      mstore(0x40, 0x80)\n      jumpi(tag_1, lt(calldatasize, 0x04))\n      shr(0xe0, calldataload(0x00))\n      dup1\n      0x4fc6b1a4\n      gt\n      tag_11\n      jumpi\n      dup1\n      0x4fc6b1a4\n      eq\n      tag_6\n      jumpi\n      dup1\n      0x8f035f35\n      eq\n      tag_7\n      jumpi\n      dup1\n      0xd0e30db0\n      eq\n      tag_8\n      jumpi\n      dup1\n      0xd358f4e3\n      eq\n      tag_9\n      jumpi\n      dup1\n      0xf3fef3a3\n      eq\n      tag_10\n      jumpi\n      jump(tag_1)\n    tag_11:\n      dup1\n      0x12065fe0\n      eq\n      tag_2\n      jumpi\n      dup1\n      0x20fb9f6b\n      eq\n      tag_3\n      jumpi\n      dup1\n      0x31c53969\n      eq\n      tag_4\n      jumpi\n      dup1\n      0x38cc4831\n      eq\n      tag_5\n      jumpi\n    tag_1:\n      0x00\n      dup1\n      revert\n        /* \"contracts/rps.sol\":689:784  function getBalance() external view returns(uint) {... */\n    tag_2:\n      callvalue\n      dup1\n      iszero\n      tag_12\n      jumpi\n      0x00\n      dup1\n      revert\n    tag_12:\n      pop\n      tag_13\n      tag_14\n      jump\t// in\n    tag_13:\n      mload(0x40)\n      tag_15\n      swap2\n      swap1\n      tag_16\n      jump\t// in\n    tag_15:\n      mload(0x40)\n      dup1\n      swap2\n      sub\n      swap1\n      return\n        /* \"contracts/rps.sol\":171:271  function getPlayersChoose() view public returns(string memory) {... */\n    tag_3:\n      callvalue\n      dup1\n      iszero\n      tag_17\n      jumpi\n      0x00\n      dup1\n      revert\n    tag_17:\n      pop\n      tag_18\n      tag_19\n      jump\t// in\n    tag_18:\n      mload(0x40)\n      tag_20\n      swap2\n      swap1\n      tag_21\n      jump\t// in\n    tag_20:\n      mload(0x40)\n      dup1\n      swap2\n      sub\n      swap1\n      return\n        /* \"contracts/rps.sol\":432:512  function changeToScissors() external {... */\n    tag_4:\n      callvalue\n      dup1\n      iszero\n      tag_22\n      jumpi\n      0x00\n      dup1\n      revert\n    tag_22:\n      pop\n      tag_23\n      tag_24\n      jump\t// in\n    tag_23:\n      stop\n        /* \"contracts/rps.sol\":790:880  function getAddress() external view returns(address) {... */\n    tag_5:\n      callvalue\n      dup1\n      iszero\n      tag_25\n      jumpi\n      0x00\n      dup1\n      revert\n    tag_25:\n      pop\n      tag_26\n      tag_27\n      jump\t// in\n    tag_26:\n      mload(0x40)\n      tag_28\n      swap2\n      swap1\n      tag_29\n      jump\t// in\n    tag_28:\n      mload(0x40)\n      dup1\n      swap2\n      sub\n      swap1\n      return\n        /* \"contracts/rps.sol\":353:427  function changeToPaper() external {... */\n    tag_6:\n      callvalue\n      dup1\n      iszero\n      tag_30\n      jumpi\n      0x00\n      dup1\n      revert\n    tag_30:\n      pop\n      tag_31\n      tag_32\n      jump\t// in\n    tag_31:\n      stop\n        /* \"contracts/rps.sol\":276:348  function changeToRock() external {... */\n    tag_7:\n      callvalue\n      dup1\n      iszero\n      tag_33\n      jumpi\n      0x00\n      dup1\n      revert\n    tag_33:\n      pop\n      tag_34\n      tag_35\n      jump\t// in\n    tag_34:\n      stop\n        /* \"contracts/rps.sol\":518:556  function deposit() external payable {} */\n    tag_8:\n      tag_36\n      tag_37\n      jump\t// in\n    tag_36:\n      stop\n        /* \"contracts/rps.sol\":77:109  string public playersChoose = \"\" */\n    tag_9:\n      callvalue\n      dup1\n      iszero\n      tag_38\n      jumpi\n      0x00\n      dup1\n      revert\n    tag_38:\n      pop\n      tag_39\n      tag_40\n      jump\t// in\n    tag_39:\n      mload(0x40)\n      tag_41\n      swap2\n      swap1\n      tag_21\n      jump\t// in\n    tag_41:\n      mload(0x40)\n      dup1\n      swap2\n      sub\n      swap1\n      return\n        /* \"contracts/rps.sol\":562:684  function withdraw(address payable _to, uint _amount) external {... */\n    tag_10:\n      callvalue\n      dup1\n      iszero\n      tag_42\n      jumpi\n      0x00\n      dup1\n      revert\n    tag_42:\n      pop\n      tag_43\n      0x04\n      dup1\n      calldatasize\n      sub\n      dup2\n      add\n      swap1\n      tag_44\n      swap2\n      swap1\n      tag_45\n      jump\t// in\n    tag_44:\n      tag_46\n      jump\t// in\n    tag_43:\n      stop\n        /* \"contracts/rps.sol\":689:784  function getBalance() external view returns(uint) {... */\n    tag_14:\n        /* \"contracts/rps.sol\":733:737  uint */\n      0x00\n        /* \"contracts/rps.sol\":756:777  address(this).balance */\n      selfbalance\n        /* \"contracts/rps.sol\":749:777  return address(this).balance */\n      swap1\n      pop\n        /* \"contracts/rps.sol\":689:784  function getBalance() external view returns(uint) {... */\n      swap1\n      jump\t// out\n        /* \"contracts/rps.sol\":171:271  function getPlayersChoose() view public returns(string memory) {... */\n    tag_19:\n        /* \"contracts/rps.sol\":219:232  string memory */\n      0x60\n        /* \"contracts/rps.sol\":251:264  playersChoose */\n      0x00\n        /* \"contracts/rps.sol\":244:264  return playersChoose */\n      dup1\n      sload\n      tag_49\n      swap1\n      tag_50\n      jump\t// in\n    tag_49:\n      dup1\n      0x1f\n      add\n      0x20\n      dup1\n      swap2\n      div\n      mul\n      0x20\n      add\n      mload(0x40)\n      swap1\n      dup2\n      add\n      0x40\n      mstore\n      dup1\n      swap3\n      swap2\n      swap1\n      dup2\n      dup2\n      mstore\n      0x20\n      add\n      dup3\n      dup1\n      sload\n      tag_51\n      swap1\n      tag_50\n      jump\t// in\n    tag_51:\n      dup1\n      iszero\n      tag_52\n      jumpi\n      dup1\n      0x1f\n      lt\n      tag_53\n      jumpi\n      0x0100\n      dup1\n      dup4\n      sload\n      div\n      mul\n      dup4\n      mstore\n      swap2\n      0x20\n      add\n      swap2\n      jump(tag_52)\n    tag_53:\n      dup3\n      add\n      swap2\n      swap1\n      0x00\n      mstore\n      keccak256(0x00, 0x20)\n      swap1\n    tag_54:\n      dup2\n      sload\n      dup2\n      mstore\n      swap1\n      0x01\n      add\n      swap1\n      0x20\n      add\n      dup1\n      dup4\n      gt\n      tag_54\n      jumpi\n      dup3\n      swap1\n      sub\n      0x1f\n      and\n      dup3\n      add\n      swap2\n    tag_52:\n      pop\n      pop\n      pop\n      pop\n      pop\n      swap1\n      pop\n        /* \"contracts/rps.sol\":171:271  function getPlayersChoose() view public returns(string memory) {... */\n      swap1\n      jump\t// out\n        /* \"contracts/rps.sol\":432:512  function changeToScissors() external {... */\n    tag_24:\n        /* \"contracts/rps.sol\":479:505  playersChoose = \"scissors\" */\n      mload(0x40)\n      dup1\n      0x40\n      add\n      0x40\n      mstore\n      dup1\n      0x08\n      dup2\n      mstore\n      0x20\n      add\n      0x73636973736f7273000000000000000000000000000000000000000000000000\n      dup2\n      mstore\n      pop\n        /* \"contracts/rps.sol\":479:492  playersChoose */\n      0x00\n        /* \"contracts/rps.sol\":479:505  playersChoose = \"scissors\" */\n      swap1\n      dup2\n      tag_56\n      swap2\n      swap1\n      tag_57\n      jump\t// in\n    tag_56:\n      pop\n        /* \"contracts/rps.sol\":432:512  function changeToScissors() external {... */\n      jump\t// out\n        /* \"contracts/rps.sol\":790:880  function getAddress() external view returns(address) {... */\n    tag_27:\n        /* \"contracts/rps.sol\":834:841  address */\n      0x00\n        /* \"contracts/rps.sol\":868:872  this */\n      address\n        /* \"contracts/rps.sol\":853:873  return address(this) */\n      swap1\n      pop\n        /* \"contracts/rps.sol\":790:880  function getAddress() external view returns(address) {... */\n      swap1\n      jump\t// out\n        /* \"contracts/rps.sol\":353:427  function changeToPaper() external {... */\n    tag_32:\n        /* \"contracts/rps.sol\":397:420  playersChoose = \"paper\" */\n      mload(0x40)\n      dup1\n      0x40\n      add\n      0x40\n      mstore\n      dup1\n      0x05\n      dup2\n      mstore\n      0x20\n      add\n      0x7061706572000000000000000000000000000000000000000000000000000000\n      dup2\n      mstore\n      pop\n        /* \"contracts/rps.sol\":397:410  playersChoose */\n      0x00\n        /* \"contracts/rps.sol\":397:420  playersChoose = \"paper\" */\n      swap1\n      dup2\n      tag_60\n      swap2\n      swap1\n      tag_57\n      jump\t// in\n    tag_60:\n      pop\n        /* \"contracts/rps.sol\":353:427  function changeToPaper() external {... */\n      jump\t// out\n        /* \"contracts/rps.sol\":276:348  function changeToRock() external {... */\n    tag_35:\n        /* \"contracts/rps.sol\":319:341  playersChoose = \"rock\" */\n      mload(0x40)\n      dup1\n      0x40\n      add\n      0x40\n      mstore\n      dup1\n      0x04\n      dup2\n      mstore\n      0x20\n      add\n      0x726f636b00000000000000000000000000000000000000000000000000000000\n      dup2\n      mstore\n      pop\n        /* \"contracts/rps.sol\":319:332  playersChoose */\n      0x00\n        /* \"contracts/rps.sol\":319:341  playersChoose = \"rock\" */\n      swap1\n      dup2\n      tag_62\n      swap2\n      swap1\n      tag_57\n      jump\t// in\n    tag_62:\n      pop\n        /* \"contracts/rps.sol\":276:348  function changeToRock() external {... */\n      jump\t// out\n        /* \"contracts/rps.sol\":518:556  function deposit() external payable {} */\n    tag_37:\n      jump\t// out\n        /* \"contracts/rps.sol\":77:109  string public playersChoose = \"\" */\n    tag_40:\n      0x00\n      dup1\n      sload\n      tag_64\n      swap1\n      tag_50\n      jump\t// in\n    tag_64:\n      dup1\n      0x1f\n      add\n      0x20\n      dup1\n      swap2\n      div\n      mul\n      0x20\n      add\n      mload(0x40)\n      swap1\n      dup2\n      add\n      0x40\n      mstore\n      dup1\n      swap3\n      swap2\n      swap1\n      dup2\n      dup2\n      mstore\n      0x20\n      add\n      dup3\n      dup1\n      sload\n      tag_65\n      swap1\n      tag_50\n      jump\t// in\n    tag_65:\n      dup1\n      iszero\n      tag_66\n      jumpi\n      dup1\n      0x1f\n      lt\n      tag_67\n      jumpi\n      0x0100\n      dup1\n      dup4\n      sload\n      div\n      mul\n      dup4\n      mstore\n      swap2\n      0x20\n      add\n      swap2\n      jump(tag_66)\n    tag_67:\n      dup3\n      add\n      swap2\n      swap1\n      0x00\n      mstore\n      keccak256(0x00, 0x20)\n      swap1\n    tag_68:\n      dup2\n      sload\n      dup2\n      mstore\n      swap1\n      0x01\n      add\n      swap1\n      0x20\n      add\n      dup1\n      dup4\n      gt\n      tag_68\n      jumpi\n      dup3\n      swap1\n      sub\n      0x1f\n      and\n      dup3\n      add\n      swap2\n    tag_66:\n      pop\n      pop\n      pop\n      pop\n      pop\n      dup2\n      jump\t// out\n        /* \"contracts/rps.sol\":562:684  function withdraw(address payable _to, uint _amount) external {... */\n    tag_46:\n        /* \"contracts/rps.sol\":634:637  _to */\n      dup2\n        /* \"contracts/rps.sol\":634:646  _to.transfer */\n      0xffffffffffffffffffffffffffffffffffffffff\n      and\n        /* \"contracts/rps.sol\":634:677  _to.transfer(_amount * 1000000000000000000) */\n      0x08fc\n        /* \"contracts/rps.sol\":657:676  1000000000000000000 */\n      0x0de0b6b3a7640000\n        /* \"contracts/rps.sol\":647:654  _amount */\n      dup4\n        /* \"contracts/rps.sol\":647:676  _amount * 1000000000000000000 */\n      tag_70\n      swap2\n      swap1\n      tag_71\n      jump\t// in\n    tag_70:\n        /* \"contracts/rps.sol\":634:677  _to.transfer(_amount * 1000000000000000000) */\n      swap1\n      dup2\n      iszero\n      mul\n      swap1\n      mload(0x40)\n      0x00\n      mload(0x40)\n      dup1\n      dup4\n      sub\n      dup2\n      dup6\n      dup9\n      dup9\n      call\n      swap4\n      pop\n      pop\n      pop\n      pop\n      iszero\n      dup1\n      iszero\n      tag_73\n      jumpi\n      returndatasize\n      0x00\n      dup1\n      returndatacopy\n      revert(0x00, returndatasize)\n    tag_73:\n      pop\n        /* \"contracts/rps.sol\":562:684  function withdraw(address payable _to, uint _amount) external {... */\n      pop\n      pop\n      jump\t// out\n        /* \"#utility.yul\":7:84   */\n    tag_74:\n        /* \"#utility.yul\":44:51   */\n      0x00\n        /* \"#utility.yul\":73:78   */\n      dup2\n        /* \"#utility.yul\":62:78   */\n      swap1\n      pop\n        /* \"#utility.yul\":7:84   */\n      swap2\n      swap1\n      pop\n      jump\t// out\n        /* \"#utility.yul\":90:208   */\n    tag_75:\n        /* \"#utility.yul\":177:201   */\n      tag_113\n        /* \"#utility.yul\":195:200   */\n      dup2\n        /* \"#utility.yul\":177:201   */\n      tag_74\n      jump\t// in\n    tag_113:\n        /* \"#utility.yul\":172:175   */\n      dup3\n        /* \"#utility.yul\":165:202   */\n      mstore\n        /* \"#utility.yul\":90:208   */\n      pop\n      pop\n      jump\t// out\n        /* \"#utility.yul\":214:436   */\n    tag_16:\n        /* \"#utility.yul\":307:311   */\n      0x00\n        /* \"#utility.yul\":345:347   */\n      0x20\n        /* \"#utility.yul\":334:343   */\n      dup3\n        /* \"#utility.yul\":330:348   */\n      add\n        /* \"#utility.yul\":322:348   */\n      swap1\n      pop\n        /* \"#utility.yul\":358:429   */\n      tag_115\n        /* \"#utility.yul\":426:427   */\n      0x00\n        /* \"#utility.yul\":415:424   */\n      dup4\n        /* \"#utility.yul\":411:428   */\n      add\n        /* \"#utility.yul\":402:408   */\n      dup5\n        /* \"#utility.yul\":358:429   */\n      tag_75\n      jump\t// in\n    tag_115:\n        /* \"#utility.yul\":214:436   */\n      swap3\n      swap2\n      pop\n      pop\n      jump\t// out\n        /* \"#utility.yul\":442:541   */\n    tag_76:\n        /* \"#utility.yul\":494:500   */\n      0x00\n        /* \"#utility.yul\":528:533   */\n      dup2\n        /* \"#utility.yul\":522:534   */\n      mload\n        /* \"#utility.yul\":512:534   */\n      swap1\n      pop\n        /* \"#utility.yul\":442:541   */\n      swap2\n      swap1\n      pop\n      jump\t// out\n        /* \"#utility.yul\":547:716   */\n    tag_77:\n        /* \"#utility.yul\":631:642   */\n      0x00\n        /* \"#utility.yul\":665:671   */\n      dup3\n        /* \"#utility.yul\":660:663   */\n      dup3\n        /* \"#utility.yul\":653:672   */\n      mstore\n        /* \"#utility.yul\":705:709   */\n      0x20\n        /* \"#utility.yul\":700:703   */\n      dup3\n        /* \"#utility.yul\":696:710   */\n      add\n        /* \"#utility.yul\":681:710   */\n      swap1\n      pop\n        /* \"#utility.yul\":547:716   */\n      swap3\n      swap2\n      pop\n      pop\n      jump\t// out\n        /* \"#utility.yul\":722:968   */\n    tag_78:\n        /* \"#utility.yul\":803:804   */\n      0x00\n        /* \"#utility.yul\":813:926   */\n    tag_119:\n        /* \"#utility.yul\":827:833   */\n      dup4\n        /* \"#utility.yul\":824:825   */\n      dup2\n        /* \"#utility.yul\":821:834   */\n      lt\n        /* \"#utility.yul\":813:926   */\n      iszero\n      tag_121\n      jumpi\n        /* \"#utility.yul\":912:913   */\n      dup1\n        /* \"#utility.yul\":907:910   */\n      dup3\n        /* \"#utility.yul\":903:914   */\n      add\n        /* \"#utility.yul\":897:915   */\n      mload\n        /* \"#utility.yul\":893:894   */\n      dup2\n        /* \"#utility.yul\":888:891   */\n      dup5\n        /* \"#utility.yul\":884:895   */\n      add\n        /* \"#utility.yul\":877:916   */\n      mstore\n        /* \"#utility.yul\":849:851   */\n      0x20\n        /* \"#utility.yul\":846:847   */\n      dup2\n        /* \"#utility.yul\":842:852   */\n      add\n        /* \"#utility.yul\":837:852   */\n      swap1\n      pop\n        /* \"#utility.yul\":813:926   */\n      jump(tag_119)\n    tag_121:\n        /* \"#utility.yul\":960:961   */\n      0x00\n        /* \"#utility.yul\":951:957   */\n      dup5\n        /* \"#utility.yul\":946:949   */\n      dup5\n        /* \"#utility.yul\":942:958   */\n      add\n        /* \"#utility.yul\":935:962   */\n      mstore\n        /* \"#utility.yul\":784:968   */\n      pop\n        /* \"#utility.yul\":722:968   */\n      pop\n      pop\n      pop\n      jump\t// out\n        /* \"#utility.yul\":974:1076   */\n    tag_79:\n        /* \"#utility.yul\":1015:1021   */\n      0x00\n        /* \"#utility.yul\":1066:1068   */\n      0x1f\n        /* \"#utility.yul\":1062:1069   */\n      not\n        /* \"#utility.yul\":1057:1059   */\n      0x1f\n        /* \"#utility.yul\":1050:1055   */\n      dup4\n        /* \"#utility.yul\":1046:1060   */\n      add\n        /* \"#utility.yul\":1042:1070   */\n      and\n        /* \"#utility.yul\":1032:1070   */\n      swap1\n      pop\n        /* \"#utility.yul\":974:1076   */\n      swap2\n      swap1\n      pop\n      jump\t// out\n        /* \"#utility.yul\":1082:1459   */\n    tag_80:\n        /* \"#utility.yul\":1170:1173   */\n      0x00\n        /* \"#utility.yul\":1198:1237   */\n      tag_124\n        /* \"#utility.yul\":1231:1236   */\n      dup3\n        /* \"#utility.yul\":1198:1237   */\n      tag_76\n      jump\t// in\n    tag_124:\n        /* \"#utility.yul\":1253:1324   */\n      tag_125\n        /* \"#utility.yul\":1317:1323   */\n      dup2\n        /* \"#utility.yul\":1312:1315   */\n      dup6\n        /* \"#utility.yul\":1253:1324   */\n      tag_77\n      jump\t// in\n    tag_125:\n        /* \"#utility.yul\":1246:1324   */\n      swap4\n      pop\n        /* \"#utility.yul\":1333:1398   */\n      tag_126\n        /* \"#utility.yul\":1391:1397   */\n      dup2\n        /* \"#utility.yul\":1386:1389   */\n      dup6\n        /* \"#utility.yul\":1379:1383   */\n      0x20\n        /* \"#utility.yul\":1372:1377   */\n      dup7\n        /* \"#utility.yul\":1368:1384   */\n      add\n        /* \"#utility.yul\":1333:1398   */\n      tag_78\n      jump\t// in\n    tag_126:\n        /* \"#utility.yul\":1423:1452   */\n      tag_127\n        /* \"#utility.yul\":1445:1451   */\n      dup2\n        /* \"#utility.yul\":1423:1452   */\n      tag_79\n      jump\t// in\n    tag_127:\n        /* \"#utility.yul\":1418:1421   */\n      dup5\n        /* \"#utility.yul\":1414:1453   */\n      add\n        /* \"#utility.yul\":1407:1453   */\n      swap2\n      pop\n        /* \"#utility.yul\":1174:1459   */\n      pop\n        /* \"#utility.yul\":1082:1459   */\n      swap3\n      swap2\n      pop\n      pop\n      jump\t// out\n        /* \"#utility.yul\":1465:1778   */\n    tag_21:\n        /* \"#utility.yul\":1578:1582   */\n      0x00\n        /* \"#utility.yul\":1616:1618   */\n      0x20\n        /* \"#utility.yul\":1605:1614   */\n      dup3\n        /* \"#utility.yul\":1601:1619   */\n      add\n        /* \"#utility.yul\":1593:1619   */\n      swap1\n      pop\n        /* \"#utility.yul\":1665:1674   */\n      dup2\n        /* \"#utility.yul\":1659:1663   */\n      dup2\n        /* \"#utility.yul\":1655:1675   */\n      sub\n        /* \"#utility.yul\":1651:1652   */\n      0x00\n        /* \"#utility.yul\":1640:1649   */\n      dup4\n        /* \"#utility.yul\":1636:1653   */\n      add\n        /* \"#utility.yul\":1629:1676   */\n      mstore\n        /* \"#utility.yul\":1693:1771   */\n      tag_129\n        /* \"#utility.yul\":1766:1770   */\n      dup2\n        /* \"#utility.yul\":1757:1763   */\n      dup5\n        /* \"#utility.yul\":1693:1771   */\n      tag_80\n      jump\t// in\n    tag_129:\n        /* \"#utility.yul\":1685:1771   */\n      swap1\n      pop\n        /* \"#utility.yul\":1465:1778   */\n      swap3\n      swap2\n      pop\n      pop\n      jump\t// out\n        /* \"#utility.yul\":1784:1910   */\n    tag_81:\n        /* \"#utility.yul\":1821:1828   */\n      0x00\n        /* \"#utility.yul\":1861:1903   */\n      0xffffffffffffffffffffffffffffffffffffffff\n        /* \"#utility.yul\":1854:1859   */\n      dup3\n        /* \"#utility.yul\":1850:1904   */\n      and\n        /* \"#utility.yul\":1839:1904   */\n      swap1\n      pop\n        /* \"#utility.yul\":1784:1910   */\n      swap2\n      swap1\n      pop\n      jump\t// out\n        /* \"#utility.yul\":1916:2012   */\n    tag_82:\n        /* \"#utility.yul\":1953:1960   */\n      0x00\n        /* \"#utility.yul\":1982:2006   */\n      tag_132\n        /* \"#utility.yul\":2000:2005   */\n      dup3\n        /* \"#utility.yul\":1982:2006   */\n      tag_81\n      jump\t// in\n    tag_132:\n        /* \"#utility.yul\":1971:2006   */\n      swap1\n      pop\n        /* \"#utility.yul\":1916:2012   */\n      swap2\n      swap1\n      pop\n      jump\t// out\n        /* \"#utility.yul\":2018:2136   */\n    tag_83:\n        /* \"#utility.yul\":2105:2129   */\n      tag_134\n        /* \"#utility.yul\":2123:2128   */\n      dup2\n        /* \"#utility.yul\":2105:2129   */\n      tag_82\n      jump\t// in\n    tag_134:\n        /* \"#utility.yul\":2100:2103   */\n      dup3\n        /* \"#utility.yul\":2093:2130   */\n      mstore\n        /* \"#utility.yul\":2018:2136   */\n      pop\n      pop\n      jump\t// out\n        /* \"#utility.yul\":2142:2364   */\n    tag_29:\n        /* \"#utility.yul\":2235:2239   */\n      0x00\n        /* \"#utility.yul\":2273:2275   */\n      0x20\n        /* \"#utility.yul\":2262:2271   */\n      dup3\n        /* \"#utility.yul\":2258:2276   */\n      add\n        /* \"#utility.yul\":2250:2276   */\n      swap1\n      pop\n        /* \"#utility.yul\":2286:2357   */\n      tag_136\n        /* \"#utility.yul\":2354:2355   */\n      0x00\n        /* \"#utility.yul\":2343:2352   */\n      dup4\n        /* \"#utility.yul\":2339:2356   */\n      add\n        /* \"#utility.yul\":2330:2336   */\n      dup5\n        /* \"#utility.yul\":2286:2357   */\n      tag_83\n      jump\t// in\n    tag_136:\n        /* \"#utility.yul\":2142:2364   */\n      swap3\n      swap2\n      pop\n      pop\n      jump\t// out\n        /* \"#utility.yul\":2451:2568   */\n    tag_85:\n        /* \"#utility.yul\":2560:2561   */\n      0x00\n        /* \"#utility.yul\":2557:2558   */\n      dup1\n        /* \"#utility.yul\":2550:2562   */\n      revert\n        /* \"#utility.yul\":2697:2801   */\n    tag_87:\n        /* \"#utility.yul\":2742:2749   */\n      0x00\n        /* \"#utility.yul\":2771:2795   */\n      tag_141\n        /* \"#utility.yul\":2789:2794   */\n      dup3\n        /* \"#utility.yul\":2771:2795   */\n      tag_81\n      jump\t// in\n    tag_141:\n        /* \"#utility.yul\":2760:2795   */\n      swap1\n      pop\n        /* \"#utility.yul\":2697:2801   */\n      swap2\n      swap1\n      pop\n      jump\t// out\n        /* \"#utility.yul\":2807:2945   */\n    tag_88:\n        /* \"#utility.yul\":2888:2920   */\n      tag_143\n        /* \"#utility.yul\":2914:2919   */\n      dup2\n        /* \"#utility.yul\":2888:2920   */\n      tag_87\n      jump\t// in\n    tag_143:\n        /* \"#utility.yul\":2881:2886   */\n      dup2\n        /* \"#utility.yul\":2878:2921   */\n      eq\n        /* \"#utility.yul\":2868:2939   */\n      tag_144\n      jumpi\n        /* \"#utility.yul\":2935:2936   */\n      0x00\n        /* \"#utility.yul\":2932:2933   */\n      dup1\n        /* \"#utility.yul\":2925:2937   */\n      revert\n        /* \"#utility.yul\":2868:2939   */\n    tag_144:\n        /* \"#utility.yul\":2807:2945   */\n      pop\n      jump\t// out\n        /* \"#utility.yul\":2951:3106   */\n    tag_89:\n        /* \"#utility.yul\":3005:3010   */\n      0x00\n        /* \"#utility.yul\":3043:3049   */\n      dup2\n        /* \"#utility.yul\":3030:3050   */\n      calldataload\n        /* \"#utility.yul\":3021:3050   */\n      swap1\n      pop\n        /* \"#utility.yul\":3059:3100   */\n      tag_146\n        /* \"#utility.yul\":3094:3099   */\n      dup2\n        /* \"#utility.yul\":3059:3100   */\n      tag_88\n      jump\t// in\n    tag_146:\n        /* \"#utility.yul\":2951:3106   */\n      swap3\n      swap2\n      pop\n      pop\n      jump\t// out\n        /* \"#utility.yul\":3112:3234   */\n    tag_90:\n        /* \"#utility.yul\":3185:3209   */\n      tag_148\n        /* \"#utility.yul\":3203:3208   */\n      dup2\n        /* \"#utility.yul\":3185:3209   */\n      tag_74\n      jump\t// in\n    tag_148:\n        /* \"#utility.yul\":3178:3183   */\n      dup2\n        /* \"#utility.yul\":3175:3210   */\n      eq\n        /* \"#utility.yul\":3165:3228   */\n      tag_149\n      jumpi\n        /* \"#utility.yul\":3224:3225   */\n      0x00\n        /* \"#utility.yul\":3221:3222   */\n      dup1\n        /* \"#utility.yul\":3214:3226   */\n      revert\n        /* \"#utility.yul\":3165:3228   */\n    tag_149:\n        /* \"#utility.yul\":3112:3234   */\n      pop\n      jump\t// out\n        /* \"#utility.yul\":3240:3379   */\n    tag_91:\n        /* \"#utility.yul\":3286:3291   */\n      0x00\n        /* \"#utility.yul\":3324:3330   */\n      dup2\n        /* \"#utility.yul\":3311:3331   */\n      calldataload\n        /* \"#utility.yul\":3302:3331   */\n      swap1\n      pop\n        /* \"#utility.yul\":3340:3373   */\n      tag_151\n        /* \"#utility.yul\":3367:3372   */\n      dup2\n        /* \"#utility.yul\":3340:3373   */\n      tag_90\n      jump\t// in\n    tag_151:\n        /* \"#utility.yul\":3240:3379   */\n      swap3\n      swap2\n      pop\n      pop\n      jump\t// out\n        /* \"#utility.yul\":3385:3875   */\n    tag_45:\n        /* \"#utility.yul\":3461:3467   */\n      0x00\n        /* \"#utility.yul\":3469:3475   */\n      dup1\n        /* \"#utility.yul\":3518:3520   */\n      0x40\n        /* \"#utility.yul\":3506:3515   */\n      dup4\n        /* \"#utility.yul\":3497:3504   */\n      dup6\n        /* \"#utility.yul\":3493:3516   */\n      sub\n        /* \"#utility.yul\":3489:3521   */\n      slt\n        /* \"#utility.yul\":3486:3605   */\n      iszero\n      tag_153\n      jumpi\n        /* \"#utility.yul\":3524:3603   */\n      tag_154\n      tag_85\n      jump\t// in\n    tag_154:\n        /* \"#utility.yul\":3486:3605   */\n    tag_153:\n        /* \"#utility.yul\":3644:3645   */\n      0x00\n        /* \"#utility.yul\":3669:3730   */\n      tag_155\n        /* \"#utility.yul\":3722:3729   */\n      dup6\n        /* \"#utility.yul\":3713:3719   */\n      dup3\n        /* \"#utility.yul\":3702:3711   */\n      dup7\n        /* \"#utility.yul\":3698:3720   */\n      add\n        /* \"#utility.yul\":3669:3730   */\n      tag_89\n      jump\t// in\n    tag_155:\n        /* \"#utility.yul\":3659:3730   */\n      swap3\n      pop\n        /* \"#utility.yul\":3615:3740   */\n      pop\n        /* \"#utility.yul\":3779:3781   */\n      0x20\n        /* \"#utility.yul\":3805:3858   */\n      tag_156\n        /* \"#utility.yul\":3850:3857   */\n      dup6\n        /* \"#utility.yul\":3841:3847   */\n      dup3\n        /* \"#utility.yul\":3830:3839   */\n      dup7\n        /* \"#utility.yul\":3826:3848   */\n      add\n        /* \"#utility.yul\":3805:3858   */\n      tag_91\n      jump\t// in\n    tag_156:\n        /* \"#utility.yul\":3795:3858   */\n      swap2\n      pop\n        /* \"#utility.yul\":3750:3868   */\n      pop\n        /* \"#utility.yul\":3385:3875   */\n      swap3\n      pop\n      swap3\n      swap1\n      pop\n      jump\t// out\n        /* \"#utility.yul\":3881:4061   */\n    tag_92:\n        /* \"#utility.yul\":3929:4006   */\n      0x4e487b7100000000000000000000000000000000000000000000000000000000\n        /* \"#utility.yul\":3926:3927   */\n      0x00\n        /* \"#utility.yul\":3919:4007   */\n      mstore\n        /* \"#utility.yul\":4026:4030   */\n      0x22\n        /* \"#utility.yul\":4023:4024   */\n      0x04\n        /* \"#utility.yul\":4016:4031   */\n      mstore\n        /* \"#utility.yul\":4050:4054   */\n      0x24\n        /* \"#utility.yul\":4047:4048   */\n      0x00\n        /* \"#utility.yul\":4040:4055   */\n      revert\n        /* \"#utility.yul\":4067:4387   */\n    tag_50:\n        /* \"#utility.yul\":4111:4117   */\n      0x00\n        /* \"#utility.yul\":4148:4149   */\n      0x02\n        /* \"#utility.yul\":4142:4146   */\n      dup3\n        /* \"#utility.yul\":4138:4150   */\n      div\n        /* \"#utility.yul\":4128:4150   */\n      swap1\n      pop\n        /* \"#utility.yul\":4195:4196   */\n      0x01\n        /* \"#utility.yul\":4189:4193   */\n      dup3\n        /* \"#utility.yul\":4185:4197   */\n      and\n        /* \"#utility.yul\":4216:4234   */\n      dup1\n        /* \"#utility.yul\":4206:4287   */\n      tag_159\n      jumpi\n        /* \"#utility.yul\":4272:4276   */\n      0x7f\n        /* \"#utility.yul\":4264:4270   */\n      dup3\n        /* \"#utility.yul\":4260:4277   */\n      and\n        /* \"#utility.yul\":4250:4277   */\n      swap2\n      pop\n        /* \"#utility.yul\":4206:4287   */\n    tag_159:\n        /* \"#utility.yul\":4334:4336   */\n      0x20\n        /* \"#utility.yul\":4326:4332   */\n      dup3\n        /* \"#utility.yul\":4323:4337   */\n      lt\n        /* \"#utility.yul\":4303:4321   */\n      dup2\n        /* \"#utility.yul\":4300:4338   */\n      sub\n        /* \"#utility.yul\":4297:4381   */\n      tag_160\n      jumpi\n        /* \"#utility.yul\":4353:4371   */\n      tag_161\n      tag_92\n      jump\t// in\n    tag_161:\n        /* \"#utility.yul\":4297:4381   */\n    tag_160:\n        /* \"#utility.yul\":4118:4387   */\n      pop\n        /* \"#utility.yul\":4067:4387   */\n      swap2\n      swap1\n      pop\n      jump\t// out\n        /* \"#utility.yul\":4393:4573   */\n    tag_93:\n        /* \"#utility.yul\":4441:4518   */\n      0x4e487b7100000000000000000000000000000000000000000000000000000000\n        /* \"#utility.yul\":4438:4439   */\n      0x00\n        /* \"#utility.yul\":4431:4519   */\n      mstore\n        /* \"#utility.yul\":4538:4542   */\n      0x41\n        /* \"#utility.yul\":4535:4536   */\n      0x04\n        /* \"#utility.yul\":4528:4543   */\n      mstore\n        /* \"#utility.yul\":4562:4566   */\n      0x24\n        /* \"#utility.yul\":4559:4560   */\n      0x00\n        /* \"#utility.yul\":4552:4567   */\n      revert\n        /* \"#utility.yul\":4579:4720   */\n    tag_94:\n        /* \"#utility.yul\":4628:4632   */\n      0x00\n        /* \"#utility.yul\":4651:4654   */\n      dup2\n        /* \"#utility.yul\":4643:4654   */\n      swap1\n      pop\n        /* \"#utility.yul\":4674:4677   */\n      dup2\n        /* \"#utility.yul\":4671:4672   */\n      0x00\n        /* \"#utility.yul\":4664:4678   */\n      mstore\n        /* \"#utility.yul\":4708:4712   */\n      0x20\n        /* \"#utility.yul\":4705:4706   */\n      0x00\n        /* \"#utility.yul\":4695:4713   */\n      keccak256\n        /* \"#utility.yul\":4687:4713   */\n      swap1\n      pop\n        /* \"#utility.yul\":4579:4720   */\n      swap2\n      swap1\n      pop\n      jump\t// out\n        /* \"#utility.yul\":4726:4819   */\n    tag_95:\n        /* \"#utility.yul\":4763:4769   */\n      0x00\n        /* \"#utility.yul\":4810:4812   */\n      0x20\n        /* \"#utility.yul\":4805:4807   */\n      0x1f\n        /* \"#utility.yul\":4798:4803   */\n      dup4\n        /* \"#utility.yul\":4794:4808   */\n      add\n        /* \"#utility.yul\":4790:4813   */\n      div\n        /* \"#utility.yul\":4780:4813   */\n      swap1\n      pop\n        /* \"#utility.yul\":4726:4819   */\n      swap2\n      swap1\n      pop\n      jump\t// out\n        /* \"#utility.yul\":4825:4932   */\n    tag_96:\n        /* \"#utility.yul\":4869:4877   */\n      0x00\n        /* \"#utility.yul\":4919:4924   */\n      dup3\n        /* \"#utility.yul\":4913:4917   */\n      dup3\n        /* \"#utility.yul\":4909:4925   */\n      shl\n        /* \"#utility.yul\":4888:4925   */\n      swap1\n      pop\n        /* \"#utility.yul\":4825:4932   */\n      swap3\n      swap2\n      pop\n      pop\n      jump\t// out\n        /* \"#utility.yul\":4938:5331   */\n    tag_97:\n        /* \"#utility.yul\":5007:5013   */\n      0x00\n        /* \"#utility.yul\":5057:5058   */\n      0x08\n        /* \"#utility.yul\":5045:5055   */\n      dup4\n        /* \"#utility.yul\":5041:5059   */\n      mul\n        /* \"#utility.yul\":5080:5177   */\n      tag_167\n        /* \"#utility.yul\":5110:5176   */\n      0xffffffffffffffffffffffffffffffffffffffffffffffffffffffffffffffff\n        /* \"#utility.yul\":5099:5108   */\n      dup3\n        /* \"#utility.yul\":5080:5177   */\n      tag_96\n      jump\t// in\n    tag_167:\n        /* \"#utility.yul\":5198:5237   */\n      tag_168\n        /* \"#utility.yul\":5228:5236   */\n      dup7\n        /* \"#utility.yul\":5217:5226   */\n      dup4\n        /* \"#utility.yul\":5198:5237   */\n      tag_96\n      jump\t// in\n    tag_168:\n        /* \"#utility.yul\":5186:5237   */\n      swap6\n      pop\n        /* \"#utility.yul\":5270:5274   */\n      dup1\n        /* \"#utility.yul\":5266:5275   */\n      not\n        /* \"#utility.yul\":5259:5264   */\n      dup5\n        /* \"#utility.yul\":5255:5276   */\n      and\n        /* \"#utility.yul\":5246:5276   */\n      swap4\n      pop\n        /* \"#utility.yul\":5319:5323   */\n      dup1\n        /* \"#utility.yul\":5309:5317   */\n      dup7\n        /* \"#utility.yul\":5305:5324   */\n      and\n        /* \"#utility.yul\":5298:5303   */\n      dup5\n        /* \"#utility.yul\":5295:5325   */\n      or\n        /* \"#utility.yul\":5285:5325   */\n      swap3\n      pop\n        /* \"#utility.yul\":5014:5331   */\n      pop\n      pop\n        /* \"#utility.yul\":4938:5331   */\n      swap4\n      swap3\n      pop\n      pop\n      pop\n      jump\t// out\n        /* \"#utility.yul\":5337:5397   */\n    tag_98:\n        /* \"#utility.yul\":5365:5368   */\n      0x00\n        /* \"#utility.yul\":5386:5391   */\n      dup2\n        /* \"#utility.yul\":5379:5391   */\n      swap1\n      pop\n        /* \"#utility.yul\":5337:5397   */\n      swap2\n      swap1\n      pop\n      jump\t// out\n        /* \"#utility.yul\":5403:5545   */\n    tag_99:\n        /* \"#utility.yul\":5453:5462   */\n      0x00\n        /* \"#utility.yul\":5486:5539   */\n      tag_171\n        /* \"#utility.yul\":5504:5538   */\n      tag_172\n        /* \"#utility.yul\":5513:5537   */\n      tag_173\n        /* \"#utility.yul\":5531:5536   */\n      dup5\n        /* \"#utility.yul\":5513:5537   */\n      tag_74\n      jump\t// in\n    tag_173:\n        /* \"#utility.yul\":5504:5538   */\n      tag_98\n      jump\t// in\n    tag_172:\n        /* \"#utility.yul\":5486:5539   */\n      tag_74\n      jump\t// in\n    tag_171:\n        /* \"#utility.yul\":5473:5539   */\n      swap1\n      pop\n        /* \"#utility.yul\":5403:5545   */\n      swap2\n      swap1\n      pop\n      jump\t// out\n        /* \"#utility.yul\":5551:5626   */\n    tag_100:\n        /* \"#utility.yul\":5594:5597   */\n      0x00\n        /* \"#utility.yul\":5615:5620   */\n      dup2\n        /* \"#utility.yul\":5608:5620   */\n      swap1\n      pop\n        /* \"#utility.yul\":5551:5626   */\n      swap2\n      swap1\n      pop\n      jump\t// out\n        /* \"#utility.yul\":5632:5901   */\n    tag_101:\n        /* \"#utility.yul\":5742:5781   */\n      tag_176\n        /* \"#utility.yul\":5773:5780   */\n      dup4\n        /* \"#utility.yul\":5742:5781   */\n      tag_99\n      jump\t// in\n    tag_176:\n        /* \"#utility.yul\":5803:5894   */\n      tag_177\n        /* \"#utility.yul\":5852:5893   */\n      tag_178\n        /* \"#utility.yul\":5876:5892   */\n      dup3\n        /* \"#utility.yul\":5852:5893   */\n      tag_100\n      jump\t// in\n    tag_178:\n        /* \"#utility.yul\":5844:5850   */\n      dup5\n        /* \"#utility.yul\":5837:5841   */\n      dup5\n        /* \"#utility.yul\":5831:5842   */\n      sload\n        /* \"#utility.yul\":5803:5894   */\n      tag_97\n      jump\t// in\n    tag_177:\n        /* \"#utility.yul\":5797:5801   */\n      dup3\n        /* \"#utility.yul\":5790:5895   */\n      sstore\n        /* \"#utility.yul\":5708:5901   */\n      pop\n        /* \"#utility.yul\":5632:5901   */\n      pop\n      pop\n      pop\n      jump\t// out\n        /* \"#utility.yul\":5907:5980   */\n    tag_102:\n        /* \"#utility.yul\":5952:5955   */\n      0x00\n        /* \"#utility.yul\":5907:5980   */\n      swap1\n      jump\t// out\n        /* \"#utility.yul\":5986:6175   */\n    tag_103:\n        /* \"#utility.yul\":6063:6095   */\n      tag_181\n      tag_102\n      jump\t// in\n    tag_181:\n        /* \"#utility.yul\":6104:6169   */\n      tag_182\n        /* \"#utility.yul\":6162:6168   */\n      dup2\n        /* \"#utility.yul\":6154:6160   */\n      dup5\n        /* \"#utility.yul\":6148:6152   */\n      dup5\n        /* \"#utility.yul\":6104:6169   */\n      tag_101\n      jump\t// in\n    tag_182:\n        /* \"#utility.yul\":6039:6175   */\n      pop\n        /* \"#utility.yul\":5986:6175   */\n      pop\n      pop\n      jump\t// out\n        /* \"#utility.yul\":6181:6367   */\n    tag_104:\n        /* \"#utility.yul\":6241:6361   */\n    tag_184:\n        /* \"#utility.yul\":6258:6261   */\n      dup2\n        /* \"#utility.yul\":6251:6256   */\n      dup2\n        /* \"#utility.yul\":6248:6262   */\n      lt\n        /* \"#utility.yul\":6241:6361   */\n      iszero\n      tag_186\n      jumpi\n        /* \"#utility.yul\":6312:6351   */\n      tag_187\n        /* \"#utility.yul\":6349:6350   */\n      0x00\n        /* \"#utility.yul\":6342:6347   */\n      dup3\n        /* \"#utility.yul\":6312:6351   */\n      tag_103\n      jump\t// in\n    tag_187:\n        /* \"#utility.yul\":6285:6286   */\n      0x01\n        /* \"#utility.yul\":6278:6283   */\n      dup2\n        /* \"#utility.yul\":6274:6287   */\n      add\n        /* \"#utility.yul\":6265:6287   */\n      swap1\n      pop\n        /* \"#utility.yul\":6241:6361   */\n      jump(tag_184)\n    tag_186:\n        /* \"#utility.yul\":6181:6367   */\n      pop\n      pop\n      jump\t// out\n        /* \"#utility.yul\":6373:6916   */\n    tag_105:\n        /* \"#utility.yul\":6474:6476   */\n      0x1f\n        /* \"#utility.yul\":6469:6472   */\n      dup3\n        /* \"#utility.yul\":6466:6477   */\n      gt\n        /* \"#utility.yul\":6463:6909   */\n      iszero\n      tag_189\n      jumpi\n        /* \"#utility.yul\":6508:6546   */\n      tag_190\n        /* \"#utility.yul\":6540:6545   */\n      dup2\n        /* \"#utility.yul\":6508:6546   */\n      tag_94\n      jump\t// in\n    tag_190:\n        /* \"#utility.yul\":6592:6621   */\n      tag_191\n        /* \"#utility.yul\":6610:6620   */\n      dup5\n        /* \"#utility.yul\":6592:6621   */\n      tag_95\n      jump\t// in\n    tag_191:\n        /* \"#utility.yul\":6582:6590   */\n      dup2\n        /* \"#utility.yul\":6578:6622   */\n      add\n        /* \"#utility.yul\":6775:6777   */\n      0x20\n        /* \"#utility.yul\":6763:6773   */\n      dup6\n        /* \"#utility.yul\":6760:6778   */\n      lt\n        /* \"#utility.yul\":6757:6806   */\n      iszero\n      tag_192\n      jumpi\n        /* \"#utility.yul\":6796:6804   */\n      dup2\n        /* \"#utility.yul\":6781:6804   */\n      swap1\n      pop\n        /* \"#utility.yul\":6757:6806   */\n    tag_192:\n        /* \"#utility.yul\":6819:6899   */\n      tag_193\n        /* \"#utility.yul\":6875:6897   */\n      tag_194\n        /* \"#utility.yul\":6893:6896   */\n      dup6\n        /* \"#utility.yul\":6875:6897   */\n      tag_95\n      jump\t// in\n    tag_194:\n        /* \"#utility.yul\":6865:6873   */\n      dup4\n        /* \"#utility.yul\":6861:6898   */\n      add\n        /* \"#utility.yul\":6848:6859   */\n      dup3\n        /* \"#utility.yul\":6819:6899   */\n      tag_104\n      jump\t// in\n    tag_193:\n        /* \"#utility.yul\":6478:6909   */\n      pop\n      pop\n        /* \"#utility.yul\":6463:6909   */\n    tag_189:\n        /* \"#utility.yul\":6373:6916   */\n      pop\n      pop\n      pop\n      jump\t// out\n        /* \"#utility.yul\":6922:7039   */\n    tag_106:\n        /* \"#utility.yul\":6976:6984   */\n      0x00\n        /* \"#utility.yul\":7026:7031   */\n      dup3\n        /* \"#utility.yul\":7020:7024   */\n      dup3\n        /* \"#utility.yul\":7016:7032   */\n      shr\n        /* \"#utility.yul\":6995:7032   */\n      swap1\n      pop\n        /* \"#utility.yul\":6922:7039   */\n      swap3\n      swap2\n      pop\n      pop\n      jump\t// out\n        /* \"#utility.yul\":7045:7214   */\n    tag_107:\n        /* \"#utility.yul\":7089:7095   */\n      0x00\n        /* \"#utility.yul\":7122:7173   */\n      tag_197\n        /* \"#utility.yul\":7170:7171   */\n      0x00\n        /* \"#utility.yul\":7166:7172   */\n      not\n        /* \"#utility.yul\":7158:7163   */\n      dup5\n        /* \"#utility.yul\":7155:7156   */\n      0x08\n        /* \"#utility.yul\":7151:7164   */\n      mul\n        /* \"#utility.yul\":7122:7173   */\n      tag_106\n      jump\t// in\n    tag_197:\n        /* \"#utility.yul\":7118:7174   */\n      not\n        /* \"#utility.yul\":7203:7207   */\n      dup1\n        /* \"#utility.yul\":7197:7201   */\n      dup4\n        /* \"#utility.yul\":7193:7208   */\n      and\n        /* \"#utility.yul\":7183:7208   */\n      swap2\n      pop\n        /* \"#utility.yul\":7096:7214   */\n      pop\n        /* \"#utility.yul\":7045:7214   */\n      swap3\n      swap2\n      pop\n      pop\n      jump\t// out\n        /* \"#utility.yul\":7219:7514   */\n    tag_108:\n        /* \"#utility.yul\":7295:7299   */\n      0x00\n        /* \"#utility.yul\":7441:7470   */\n      tag_199\n        /* \"#utility.yul\":7466:7469   */\n      dup4\n        /* \"#utility.yul\":7460:7464   */\n      dup4\n        /* \"#utility.yul\":7441:7470   */\n      tag_107\n      jump\t// in\n    tag_199:\n        /* \"#utility.yul\":7433:7470   */\n      swap2\n      pop\n        /* \"#utility.yul\":7503:7506   */\n      dup3\n        /* \"#utility.yul\":7500:7501   */\n      0x02\n        /* \"#utility.yul\":7496:7507   */\n      mul\n        /* \"#utility.yul\":7490:7494   */\n      dup3\n        /* \"#utility.yul\":7487:7508   */\n      or\n        /* \"#utility.yul\":7479:7508   */\n      swap1\n      pop\n        /* \"#utility.yul\":7219:7514   */\n      swap3\n      swap2\n      pop\n      pop\n      jump\t// out\n        /* \"#utility.yul\":7519:8914   */\n    tag_57:\n        /* \"#utility.yul\":7636:7673   */\n      tag_201\n        /* \"#utility.yul\":7669:7672   */\n      dup3\n        /* \"#utility.yul\":7636:7673   */\n      tag_76\n      jump\t// in\n    tag_201:\n        /* \"#utility.yul\":7738:7756   */\n      0xffffffffffffffff\n        /* \"#utility.yul\":7730:7736   */\n      dup2\n        /* \"#utility.yul\":7727:7757   */\n      gt\n        /* \"#utility.yul\":7724:7780   */\n      iszero\n      tag_202\n      jumpi\n        /* \"#utility.yul\":7760:7778   */\n      tag_203\n      tag_93\n      jump\t// in\n    tag_203:\n        /* \"#utility.yul\":7724:7780   */\n    tag_202:\n        /* \"#utility.yul\":7804:7842   */\n      tag_204\n        /* \"#utility.yul\":7836:7840   */\n      dup3\n        /* \"#utility.yul\":7830:7841   */\n      sload\n        /* \"#utility.yul\":7804:7842   */\n      tag_50\n      jump\t// in\n    tag_204:\n        /* \"#utility.yul\":7889:7956   */\n      tag_205\n        /* \"#utility.yul\":7949:7955   */\n      dup3\n        /* \"#utility.yul\":7941:7947   */\n      dup3\n        /* \"#utility.yul\":7935:7939   */\n      dup6\n        /* \"#utility.yul\":7889:7956   */\n      tag_105\n      jump\t// in\n    tag_205:\n        /* \"#utility.yul\":7983:7984   */\n      0x00\n        /* \"#utility.yul\":8007:8011   */\n      0x20\n        /* \"#utility.yul\":7994:8011   */\n      swap1\n      pop\n        /* \"#utility.yul\":8039:8041   */\n      0x1f\n        /* \"#utility.yul\":8031:8037   */\n      dup4\n        /* \"#utility.yul\":8028:8042   */\n      gt\n        /* \"#utility.yul\":8056:8057   */\n      0x01\n        /* \"#utility.yul\":8051:8669   */\n      dup2\n      eq\n      tag_207\n      jumpi\n        /* \"#utility.yul\":8713:8714   */\n      0x00\n        /* \"#utility.yul\":8730:8736   */\n      dup5\n        /* \"#utility.yul\":8727:8804   */\n      iszero\n      tag_208\n      jumpi\n        /* \"#utility.yul\":8779:8788   */\n      dup3\n        /* \"#utility.yul\":8774:8777   */\n      dup8\n        /* \"#utility.yul\":8770:8789   */\n      add\n        /* \"#utility.yul\":8764:8790   */\n      mload\n        /* \"#utility.yul\":8755:8790   */\n      swap1\n      pop\n        /* \"#utility.yul\":8727:8804   */\n    tag_208:\n        /* \"#utility.yul\":8830:8897   */\n      tag_209\n        /* \"#utility.yul\":8890:8896   */\n      dup6\n        /* \"#utility.yul\":8883:8888   */\n      dup3\n        /* \"#utility.yul\":8830:8897   */\n      tag_108\n      jump\t// in\n    tag_209:\n        /* \"#utility.yul\":8824:8828   */\n      dup7\n        /* \"#utility.yul\":8817:8898   */\n      sstore\n        /* \"#utility.yul\":8686:8908   */\n      pop\n        /* \"#utility.yul\":8021:8908   */\n      jump(tag_206)\n        /* \"#utility.yul\":8051:8669   */\n    tag_207:\n        /* \"#utility.yul\":8103:8107   */\n      0x1f\n        /* \"#utility.yul\":8099:8108   */\n      not\n        /* \"#utility.yul\":8091:8097   */\n      dup5\n        /* \"#utility.yul\":8087:8109   */\n      and\n        /* \"#utility.yul\":8137:8174   */\n      tag_210\n        /* \"#utility.yul\":8169:8173   */\n      dup7\n        /* \"#utility.yul\":8137:8174   */\n      tag_94\n      jump\t// in\n    tag_210:\n        /* \"#utility.yul\":8196:8197   */\n      0x00\n        /* \"#utility.yul\":8210:8418   */\n    tag_211:\n        /* \"#utility.yul\":8224:8231   */\n      dup3\n        /* \"#utility.yul\":8221:8222   */\n      dup2\n        /* \"#utility.yul\":8218:8232   */\n      lt\n        /* \"#utility.yul\":8210:8418   */\n      iszero\n      tag_213\n      jumpi\n        /* \"#utility.yul\":8303:8312   */\n      dup5\n        /* \"#utility.yul\":8298:8301   */\n      dup10\n        /* \"#utility.yul\":8294:8313   */\n      add\n        /* \"#utility.yul\":8288:8314   */\n      mload\n        /* \"#utility.yul\":8280:8286   */\n      dup3\n        /* \"#utility.yul\":8273:8315   */\n      sstore\n        /* \"#utility.yul\":8354:8355   */\n      0x01\n        /* \"#utility.yul\":8346:8352   */\n      dup3\n        /* \"#utility.yul\":8342:8356   */\n      add\n        /* \"#utility.yul\":8332:8356   */\n      swap2\n      pop\n        /* \"#utility.yul\":8401:8403   */\n      0x20\n        /* \"#utility.yul\":8390:8399   */\n      dup6\n        /* \"#utility.yul\":8386:8404   */\n      add\n        /* \"#utility.yul\":8373:8404   */\n      swap5\n      pop\n        /* \"#utility.yul\":8247:8251   */\n      0x20\n        /* \"#utility.yul\":8244:8245   */\n      dup2\n        /* \"#utility.yul\":8240:8252   */\n      add\n        /* \"#utility.yul\":8235:8252   */\n      swap1\n      pop\n        /* \"#utility.yul\":8210:8418   */\n      jump(tag_211)\n    tag_213:\n        /* \"#utility.yul\":8446:8452   */\n      dup7\n        /* \"#utility.yul\":8437:8444   */\n      dup4\n        /* \"#utility.yul\":8434:8453   */\n      lt\n        /* \"#utility.yul\":8431:8610   */\n      iszero\n      tag_214\n      jumpi\n        /* \"#utility.yul\":8504:8513   */\n      dup5\n        /* \"#utility.yul\":8499:8502   */\n      dup10\n        /* \"#utility.yul\":8495:8514   */\n      add\n        /* \"#utility.yul\":8489:8515   */\n      mload\n        /* \"#utility.yul\":8547:8595   */\n      tag_215\n        /* \"#utility.yul\":8589:8593   */\n      0x1f\n        /* \"#utility.yul\":8581:8587   */\n      dup10\n        /* \"#utility.yul\":8577:8594   */\n      and\n        /* \"#utility.yul\":8566:8575   */\n      dup3\n        /* \"#utility.yul\":8547:8595   */\n      tag_107\n      jump\t// in\n    tag_215:\n        /* \"#utility.yul\":8539:8545   */\n      dup4\n        /* \"#utility.yul\":8532:8596   */\n      sstore\n        /* \"#utility.yul\":8454:8610   */\n      pop\n        /* \"#utility.yul\":8431:8610   */\n    tag_214:\n        /* \"#utility.yul\":8656:8657   */\n      0x01\n        /* \"#utility.yul\":8652:8653   */\n      0x02\n        /* \"#utility.yul\":8644:8650   */\n      dup9\n        /* \"#utility.yul\":8640:8654   */\n      mul\n        /* \"#utility.yul\":8636:8658   */\n      add\n        /* \"#utility.yul\":8630:8634   */\n      dup9\n        /* \"#utility.yul\":8623:8659   */\n      sstore\n        /* \"#utility.yul\":8058:8669   */\n      pop\n      pop\n      pop\n        /* \"#utility.yul\":8021:8908   */\n    tag_206:\n      pop\n        /* \"#utility.yul\":7611:8914   */\n      pop\n      pop\n      pop\n        /* \"#utility.yul\":7519:8914   */\n      pop\n      pop\n      jump\t// out\n        /* \"#utility.yul\":8920:9100   */\n    tag_109:\n        /* \"#utility.yul\":8968:9045   */\n      0x4e487b7100000000000000000000000000000000000000000000000000000000\n        /* \"#utility.yul\":8965:8966   */\n      0x00\n        /* \"#utility.yul\":8958:9046   */\n      mstore\n        /* \"#utility.yul\":9065:9069   */\n      0x11\n        /* \"#utility.yul\":9062:9063   */\n      0x04\n        /* \"#utility.yul\":9055:9070   */\n      mstore\n        /* \"#utility.yul\":9089:9093   */\n      0x24\n        /* \"#utility.yul\":9086:9087   */\n      0x00\n        /* \"#utility.yul\":9079:9094   */\n      revert\n        /* \"#utility.yul\":9106:9516   */\n    tag_71:\n        /* \"#utility.yul\":9146:9153   */\n      0x00\n        /* \"#utility.yul\":9169:9189   */\n      tag_218\n        /* \"#utility.yul\":9187:9188   */\n      dup3\n        /* \"#utility.yul\":9169:9189   */\n      tag_74\n      jump\t// in\n    tag_218:\n        /* \"#utility.yul\":9164:9189   */\n      swap2\n      pop\n        /* \"#utility.yul\":9203:9223   */\n      tag_219\n        /* \"#utility.yul\":9221:9222   */\n      dup4\n        /* \"#utility.yul\":9203:9223   */\n      tag_74\n      jump\t// in\n    tag_219:\n        /* \"#utility.yul\":9198:9223   */\n      swap3\n      pop\n        /* \"#utility.yul\":9258:9259   */\n      dup3\n        /* \"#utility.yul\":9255:9256   */\n      dup3\n        /* \"#utility.yul\":9251:9260   */\n      mul\n        /* \"#utility.yul\":9280:9310   */\n      tag_220\n        /* \"#utility.yul\":9298:9309   */\n      dup2\n        /* \"#utility.yul\":9280:9310   */\n      tag_74\n      jump\t// in\n    tag_220:\n        /* \"#utility.yul\":9269:9310   */\n      swap2\n      pop\n        /* \"#utility.yul\":9459:9460   */\n      dup3\n        /* \"#utility.yul\":9450:9457   */\n      dup3\n        /* \"#utility.yul\":9446:9461   */\n      div\n        /* \"#utility.yul\":9443:9444   */\n      dup5\n        /* \"#utility.yul\":9440:9462   */\n      eq\n        /* \"#utility.yul\":9420:9421   */\n      dup4\n        /* \"#utility.yul\":9413:9422   */\n      iszero\n        /* \"#utility.yul\":9393:9476   */\n      or\n        /* \"#utility.yul\":9370:9509   */\n      tag_221\n      jumpi\n        /* \"#utility.yul\":9489:9507   */\n      tag_222\n      tag_109\n      jump\t// in\n    tag_222:\n        /* \"#utility.yul\":9370:9509   */\n    tag_221:\n        /* \"#utility.yul\":9154:9516   */\n      pop\n        /* \"#utility.yul\":9106:9516   */\n      swap3\n      swap2\n      pop\n      pop\n      jump\t// out\n\n    auxdata: 0xa2646970667358221220d9492dc967da4fb98671a296af93a78fd86e465286179f04851af8226367db0b64736f6c63430008120033\n}\n",
				"bytecode": {
					"linkReferences": {},
					"object": "60806040526040518060200160405280600081525060009081620000249190620002d4565b503480156200003257600080fd5b506040518060200160405280600081525060009081620000539190620002d4565b50620003bb565b600081519050919050565b7f4e487b7100000000000000000000000000000000000000000000000000000000600052604160045260246000fd5b7f4e487b7100000000000000000000000000000000000000000000000000000000600052602260045260246000fd5b60006002820490506001821680620000dc57607f821691505b602082108103620000f257620000f162000094565b5b50919050565b60008190508160005260206000209050919050565b60006020601f8301049050919050565b600082821b905092915050565b6000600883026200015c7fffffffffffffffffffffffffffffffffffffffffffffffffffffffffffffffff826200011d565b6200016886836200011d565b95508019841693508086168417925050509392505050565b6000819050919050565b6000819050919050565b6000620001b5620001af620001a98462000180565b6200018a565b62000180565b9050919050565b6000819050919050565b620001d18362000194565b620001e9620001e082620001bc565b8484546200012a565b825550505050565b600090565b62000200620001f1565b6200020d818484620001c6565b505050565b5b81811015620002355762000229600082620001f6565b60018101905062000213565b5050565b601f82111562000284576200024e81620000f8565b62000259846200010d565b8101602085101562000269578190505b6200028162000278856200010d565b83018262000212565b50505b505050565b600082821c905092915050565b6000620002a96000198460080262000289565b1980831691505092915050565b6000620002c4838362000296565b9150826002028217905092915050565b620002df826200005a565b67ffffffffffffffff811115620002fb57620002fa62000065565b5b620003078254620000c3565b6200031482828562000239565b600060209050601f8311600181146200034c576000841562000337578287015190505b620003438582620002b6565b865550620003b3565b601f1984166200035c86620000f8565b60005b8281101562000386578489015182556001820191506020850194506020810190506200035f565b86831015620003a65784890151620003a2601f89168262000296565b8355505b6001600288020188555050505b505050505050565b6109b980620003cb6000396000f3fe6080604052600436106100865760003560e01c80634fc6b1a4116100595780634fc6b1a4146101235780638f035f351461013a578063d0e30db014610151578063d358f4e31461015b578063f3fef3a31461018657610086565b806312065fe01461008b57806320fb9f6b146100b657806331c53969146100e157806338cc4831146100f8575b600080fd5b34801561009757600080fd5b506100a06101af565b6040516100ad919061042d565b60405180910390f35b3480156100c257600080fd5b506100cb6101b7565b6040516100d891906104d8565b60405180910390f35b3480156100ed57600080fd5b506100f6610249565b005b34801561010457600080fd5b5061010d610290565b60405161011a919061053b565b60405180910390f35b34801561012f57600080fd5b50610138610298565b005b34801561014657600080fd5b5061014f6102df565b005b610159610326565b005b34801561016757600080fd5b50610170610328565b60405161017d91906104d8565b60405180910390f35b34801561019257600080fd5b506101ad60048036038101906101a891906105c5565b6103b6565b005b600047905090565b6060600080546101c690610634565b80601f01602080910402602001604051908101604052809291908181526020018280546101f290610634565b801561023f5780601f106102145761010080835404028352916020019161023f565b820191906000526020600020905b81548152906001019060200180831161022257829003601f168201915b5050505050905090565b6040518060400160405280600881526020017f73636973736f72730000000000000000000000000000000000000000000000008152506000908161028d9190610840565b50565b600030905090565b6040518060400160405280600581526020017f7061706572000000000000000000000000000000000000000000000000000000815250600090816102dc9190610840565b50565b6040518060400160405280600481526020017f726f636b00000000000000000000000000000000000000000000000000000000815250600090816103239190610840565b50565b565b6000805461033590610634565b80601f016020809104026020016040519081016040528092919081815260200182805461036190610634565b80156103ae5780601f10610383576101008083540402835291602001916103ae565b820191906000526020600020905b81548152906001019060200180831161039157829003601f168201915b505050505081565b8173ffffffffffffffffffffffffffffffffffffffff166108fc670de0b6b3a7640000836103e49190610941565b9081150290604051600060405180830381858888f1935050505015801561040f573d6000803e3d6000fd5b505050565b6000819050919050565b61042781610414565b82525050565b6000602082019050610442600083018461041e565b92915050565b600081519050919050565b600082825260208201905092915050565b60005b83811015610482578082015181840152602081019050610467565b60008484015250505050565b6000601f19601f8301169050919050565b60006104aa82610448565b6104b48185610453565b93506104c4818560208601610464565b6104cd8161048e565b840191505092915050565b600060208201905081810360008301526104f2818461049f565b905092915050565b600073ffffffffffffffffffffffffffffffffffffffff82169050919050565b6000610525826104fa565b9050919050565b6105358161051a565b82525050565b6000602082019050610550600083018461052c565b92915050565b600080fd5b6000610566826104fa565b9050919050565b6105768161055b565b811461058157600080fd5b50565b6000813590506105938161056d565b92915050565b6105a281610414565b81146105ad57600080fd5b50565b6000813590506105bf81610599565b92915050565b600080604083850312156105dc576105db610556565b5b60006105ea85828601610584565b92505060206105fb858286016105b0565b9150509250929050565b7f4e487b7100000000000000000000000000000000000000000000000000000000600052602260045260246000fd5b6000600282049050600182168061064c57607f821691505b60208210810361065f5761065e610605565b5b50919050565b7f4e487b7100000000000000000000000000000000000000000000000000000000600052604160045260246000fd5b60008190508160005260206000209050919050565b60006020601f8301049050919050565b600082821b905092915050565b6000600883026106f67fffffffffffffffffffffffffffffffffffffffffffffffffffffffffffffffff826106b9565b61070086836106b9565b95508019841693508086168417925050509392505050565b6000819050919050565b600061073d61073861073384610414565b610718565b610414565b9050919050565b6000819050919050565b61075783610722565b61076b61076382610744565b8484546106c6565b825550505050565b600090565b610780610773565b61078b81848461074e565b505050565b5b818110156107af576107a4600082610778565b600181019050610791565b5050565b601f8211156107f4576107c581610694565b6107ce846106a9565b810160208510156107dd578190505b6107f16107e9856106a9565b830182610790565b50505b505050565b600082821c905092915050565b6000610817600019846008026107f9565b1980831691505092915050565b60006108308383610806565b9150826002028217905092915050565b61084982610448565b67ffffffffffffffff81111561086257610861610665565b5b61086c8254610634565b6108778282856107b3565b600060209050601f8311600181146108aa5760008415610898578287015190505b6108a28582610824565b86555061090a565b601f1984166108b886610694565b60005b828110156108e0578489015182556001820191506020850194506020810190506108bb565b868310156108fd57848901516108f9601f891682610806565b8355505b6001600288020188555050505b505050505050565b7f4e487b7100000000000000000000000000000000000000000000000000000000600052601160045260246000fd5b600061094c82610414565b915061095783610414565b925082820261096581610414565b9150828204841483151761097c5761097b610912565b5b509291505056fea2646970667358221220d9492dc967da4fb98671a296af93a78fd86e465286179f04851af8226367db0b64736f6c63430008120033",
					"opcodes": "PUSH1 0x80 PUSH1 0x40 MSTORE PUSH1 0x40 MLOAD DUP1 PUSH1 0x20 ADD PUSH1 0x40 MSTORE DUP1 PUSH1 0x0 DUP2 MSTORE POP PUSH1 0x0 SWAP1 DUP2 PUSH3 0x24 SWAP2 SWAP1 PUSH3 0x2D4 JUMP JUMPDEST POP CALLVALUE DUP1 ISZERO PUSH3 0x32 JUMPI PUSH1 0x0 DUP1 REVERT JUMPDEST POP PUSH1 0x40 MLOAD DUP1 PUSH1 0x20 ADD PUSH1 0x40 MSTORE DUP1 PUSH1 0x0 DUP2 MSTORE POP PUSH1 0x0 SWAP1 DUP2 PUSH3 0x53 SWAP2 SWAP1 PUSH3 0x2D4 JUMP JUMPDEST POP PUSH3 0x3BB JUMP JUMPDEST PUSH1 0x0 DUP2 MLOAD SWAP1 POP SWAP2 SWAP1 POP JUMP JUMPDEST PUSH32 0x4E487B7100000000000000000000000000000000000000000000000000000000 PUSH1 0x0 MSTORE PUSH1 0x41 PUSH1 0x4 MSTORE PUSH1 0x24 PUSH1 0x0 REVERT JUMPDEST PUSH32 0x4E487B7100000000000000000000000000000000000000000000000000000000 PUSH1 0x0 MSTORE PUSH1 0x22 PUSH1 0x4 MSTORE PUSH1 0x24 PUSH1 0x0 REVERT JUMPDEST PUSH1 0x0 PUSH1 0x2 DUP3 DIV SWAP1 POP PUSH1 0x1 DUP3 AND DUP1 PUSH3 0xDC JUMPI PUSH1 0x7F DUP3 AND SWAP2 POP JUMPDEST PUSH1 0x20 DUP3 LT DUP2 SUB PUSH3 0xF2 JUMPI PUSH3 0xF1 PUSH3 0x94 JUMP JUMPDEST JUMPDEST POP SWAP2 SWAP1 POP JUMP JUMPDEST PUSH1 0x0 DUP2 SWAP1 POP DUP2 PUSH1 0x0 MSTORE PUSH1 0x20 PUSH1 0x0 KECCAK256 SWAP1 POP SWAP2 SWAP1 POP JUMP JUMPDEST PUSH1 0x0 PUSH1 0x20 PUSH1 0x1F DUP4 ADD DIV SWAP1 POP SWAP2 SWAP1 POP JUMP JUMPDEST PUSH1 0x0 DUP3 DUP3 SHL SWAP1 POP SWAP3 SWAP2 POP POP JUMP JUMPDEST PUSH1 0x0 PUSH1 0x8 DUP4 MUL PUSH3 0x15C PUSH32 0xFFFFFFFFFFFFFFFFFFFFFFFFFFFFFFFFFFFFFFFFFFFFFFFFFFFFFFFFFFFFFFFF DUP3 PUSH3 0x11D JUMP JUMPDEST PUSH3 0x168 DUP7 DUP4 PUSH3 0x11D JUMP JUMPDEST SWAP6 POP DUP1 NOT DUP5 AND SWAP4 POP DUP1 DUP7 AND DUP5 OR SWAP3 POP POP POP SWAP4 SWAP3 POP POP POP JUMP JUMPDEST PUSH1 0x0 DUP2 SWAP1 POP SWAP2 SWAP1 POP JUMP JUMPDEST PUSH1 0x0 DUP2 SWAP1 POP SWAP2 SWAP1 POP JUMP JUMPDEST PUSH1 0x0 PUSH3 0x1B5 PUSH3 0x1AF PUSH3 0x1A9 DUP5 PUSH3 0x180 JUMP JUMPDEST PUSH3 0x18A JUMP JUMPDEST PUSH3 0x180 JUMP JUMPDEST SWAP1 POP SWAP2 SWAP1 POP JUMP JUMPDEST PUSH1 0x0 DUP2 SWAP1 POP SWAP2 SWAP1 POP JUMP JUMPDEST PUSH3 0x1D1 DUP4 PUSH3 0x194 JUMP JUMPDEST PUSH3 0x1E9 PUSH3 0x1E0 DUP3 PUSH3 0x1BC JUMP JUMPDEST DUP5 DUP5 SLOAD PUSH3 0x12A JUMP JUMPDEST DUP3 SSTORE POP POP POP POP JUMP JUMPDEST PUSH1 0x0 SWAP1 JUMP JUMPDEST PUSH3 0x200 PUSH3 0x1F1 JUMP JUMPDEST PUSH3 0x20D DUP2 DUP5 DUP5 PUSH3 0x1C6 JUMP JUMPDEST POP POP POP JUMP JUMPDEST JUMPDEST DUP2 DUP2 LT ISZERO PUSH3 0x235 JUMPI PUSH3 0x229 PUSH1 0x0 DUP3 PUSH3 0x1F6 JUMP JUMPDEST PUSH1 0x1 DUP2 ADD SWAP1 POP PUSH3 0x213 JUMP JUMPDEST POP POP JUMP JUMPDEST PUSH1 0x1F DUP3 GT ISZERO PUSH3 0x284 JUMPI PUSH3 0x24E DUP2 PUSH3 0xF8 JUMP JUMPDEST PUSH3 0x259 DUP5 PUSH3 0x10D JUMP JUMPDEST DUP2 ADD PUSH1 0x20 DUP6 LT ISZERO PUSH3 0x269 JUMPI DUP2 SWAP1 POP JUMPDEST PUSH3 0x281 PUSH3 0x278 DUP6 PUSH3 0x10D JUMP JUMPDEST DUP4 ADD DUP3 PUSH3 0x212 JUMP JUMPDEST POP POP JUMPDEST POP POP POP JUMP JUMPDEST PUSH1 0x0 DUP3 DUP3 SHR SWAP1 POP SWAP3 SWAP2 POP POP JUMP JUMPDEST PUSH1 0x0 PUSH3 0x2A9 PUSH1 0x0 NOT DUP5 PUSH1 0x8 MUL PUSH3 0x289 JUMP JUMPDEST NOT DUP1 DUP4 AND SWAP2 POP POP SWAP3 SWAP2 POP POP JUMP JUMPDEST PUSH1 0x0 PUSH3 0x2C4 DUP4 DUP4 PUSH3 0x296 JUMP JUMPDEST SWAP2 POP DUP3 PUSH1 0x2 MUL DUP3 OR SWAP1 POP SWAP3 SWAP2 POP POP JUMP JUMPDEST PUSH3 0x2DF DUP3 PUSH3 0x5A JUMP JUMPDEST PUSH8 0xFFFFFFFFFFFFFFFF DUP2 GT ISZERO PUSH3 0x2FB JUMPI PUSH3 0x2FA PUSH3 0x65 JUMP JUMPDEST JUMPDEST PUSH3 0x307 DUP3 SLOAD PUSH3 0xC3 JUMP JUMPDEST PUSH3 0x314 DUP3 DUP3 DUP6 PUSH3 0x239 JUMP JUMPDEST PUSH1 0x0 PUSH1 0x20 SWAP1 POP PUSH1 0x1F DUP4 GT PUSH1 0x1 DUP2 EQ PUSH3 0x34C JUMPI PUSH1 0x0 DUP5 ISZERO PUSH3 0x337 JUMPI DUP3 DUP8 ADD MLOAD SWAP1 POP JUMPDEST PUSH3 0x343 DUP6 DUP3 PUSH3 0x2B6 JUMP JUMPDEST DUP7 SSTORE POP PUSH3 0x3B3 JUMP JUMPDEST PUSH1 0x1F NOT DUP5 AND PUSH3 0x35C DUP7 PUSH3 0xF8 JUMP JUMPDEST PUSH1 0x0 JUMPDEST DUP3 DUP2 LT ISZERO PUSH3 0x386 JUMPI DUP5 DUP10 ADD MLOAD DUP3 SSTORE PUSH1 0x1 DUP3 ADD SWAP2 POP PUSH1 0x20 DUP6 ADD SWAP5 POP PUSH1 0x20 DUP2 ADD SWAP1 POP PUSH3 0x35F JUMP JUMPDEST DUP7 DUP4 LT ISZERO PUSH3 0x3A6 JUMPI DUP5 DUP10 ADD MLOAD PUSH3 0x3A2 PUSH1 0x1F DUP10 AND DUP3 PUSH3 0x296 JUMP JUMPDEST DUP4 SSTORE POP JUMPDEST PUSH1 0x1 PUSH1 0x2 DUP9 MUL ADD DUP9 SSTORE POP POP POP JUMPDEST POP POP POP POP POP POP JUMP JUMPDEST PUSH2 0x9B9 DUP1 PUSH3 0x3CB PUSH1 0x0 CODECOPY PUSH1 0x0 RETURN INVALID PUSH1 0x80 PUSH1 0x40 MSTORE PUSH1 0x4 CALLDATASIZE LT PUSH2 0x86 JUMPI PUSH1 0x0 CALLDATALOAD PUSH1 0xE0 SHR DUP1 PUSH4 0x4FC6B1A4 GT PUSH2 0x59 JUMPI DUP1 PUSH4 0x4FC6B1A4 EQ PUSH2 0x123 JUMPI DUP1 PUSH4 0x8F035F35 EQ PUSH2 0x13A JUMPI DUP1 PUSH4 0xD0E30DB0 EQ PUSH2 0x151 JUMPI DUP1 PUSH4 0xD358F4E3 EQ PUSH2 0x15B JUMPI DUP1 PUSH4 0xF3FEF3A3 EQ PUSH2 0x186 JUMPI PUSH2 0x86 JUMP JUMPDEST DUP1 PUSH4 0x12065FE0 EQ PUSH2 0x8B JUMPI DUP1 PUSH4 0x20FB9F6B EQ PUSH2 0xB6 JUMPI DUP1 PUSH4 0x31C53969 EQ PUSH2 0xE1 JUMPI DUP1 PUSH4 0x38CC4831 EQ PUSH2 0xF8 JUMPI JUMPDEST PUSH1 0x0 DUP1 REVERT JUMPDEST CALLVALUE DUP1 ISZERO PUSH2 0x97 JUMPI PUSH1 0x0 DUP1 REVERT JUMPDEST POP PUSH2 0xA0 PUSH2 0x1AF JUMP JUMPDEST PUSH1 0x40 MLOAD PUSH2 0xAD SWAP2 SWAP1 PUSH2 0x42D JUMP JUMPDEST PUSH1 0x40 MLOAD DUP1 SWAP2 SUB SWAP1 RETURN JUMPDEST CALLVALUE DUP1 ISZERO PUSH2 0xC2 JUMPI PUSH1 0x0 DUP1 REVERT JUMPDEST POP PUSH2 0xCB PUSH2 0x1B7 JUMP JUMPDEST PUSH1 0x40 MLOAD PUSH2 0xD8 SWAP2 SWAP1 PUSH2 0x4D8 JUMP JUMPDEST PUSH1 0x40 MLOAD DUP1 SWAP2 SUB SWAP1 RETURN JUMPDEST CALLVALUE DUP1 ISZERO PUSH2 0xED JUMPI PUSH1 0x0 DUP1 REVERT JUMPDEST POP PUSH2 0xF6 PUSH2 0x249 JUMP JUMPDEST STOP JUMPDEST CALLVALUE DUP1 ISZERO PUSH2 0x104 JUMPI PUSH1 0x0 DUP1 REVERT JUMPDEST POP PUSH2 0x10D PUSH2 0x290 JUMP JUMPDEST PUSH1 0x40 MLOAD PUSH2 0x11A SWAP2 SWAP1 PUSH2 0x53B JUMP JUMPDEST PUSH1 0x40 MLOAD DUP1 SWAP2 SUB SWAP1 RETURN JUMPDEST CALLVALUE DUP1 ISZERO PUSH2 0x12F JUMPI PUSH1 0x0 DUP1 REVERT JUMPDEST POP PUSH2 0x138 PUSH2 0x298 JUMP JUMPDEST STOP JUMPDEST CALLVALUE DUP1 ISZERO PUSH2 0x146 JUMPI PUSH1 0x0 DUP1 REVERT JUMPDEST POP PUSH2 0x14F PUSH2 0x2DF JUMP JUMPDEST STOP JUMPDEST PUSH2 0x159 PUSH2 0x326 JUMP JUMPDEST STOP JUMPDEST CALLVALUE DUP1 ISZERO PUSH2 0x167 JUMPI PUSH1 0x0 DUP1 REVERT JUMPDEST POP PUSH2 0x170 PUSH2 0x328 JUMP JUMPDEST PUSH1 0x40 MLOAD PUSH2 0x17D SWAP2 SWAP1 PUSH2 0x4D8 JUMP JUMPDEST PUSH1 0x40 MLOAD DUP1 SWAP2 SUB SWAP1 RETURN JUMPDEST CALLVALUE DUP1 ISZERO PUSH2 0x192 JUMPI PUSH1 0x0 DUP1 REVERT JUMPDEST POP PUSH2 0x1AD PUSH1 0x4 DUP1 CALLDATASIZE SUB DUP2 ADD SWAP1 PUSH2 0x1A8 SWAP2 SWAP1 PUSH2 0x5C5 JUMP JUMPDEST PUSH2 0x3B6 JUMP JUMPDEST STOP JUMPDEST PUSH1 0x0 SELFBALANCE SWAP1 POP SWAP1 JUMP JUMPDEST PUSH1 0x60 PUSH1 0x0 DUP1 SLOAD PUSH2 0x1C6 SWAP1 PUSH2 0x634 JUMP JUMPDEST DUP1 PUSH1 0x1F ADD PUSH1 0x20 DUP1 SWAP2 DIV MUL PUSH1 0x20 ADD PUSH1 0x40 MLOAD SWAP1 DUP2 ADD PUSH1 0x40 MSTORE DUP1 SWAP3 SWAP2 SWAP1 DUP2 DUP2 MSTORE PUSH1 0x20 ADD DUP3 DUP1 SLOAD PUSH2 0x1F2 SWAP1 PUSH2 0x634 JUMP JUMPDEST DUP1 ISZERO PUSH2 0x23F JUMPI DUP1 PUSH1 0x1F LT PUSH2 0x214 JUMPI PUSH2 0x100 DUP1 DUP4 SLOAD DIV MUL DUP4 MSTORE SWAP2 PUSH1 0x20 ADD SWAP2 PUSH2 0x23F JUMP JUMPDEST DUP3 ADD SWAP2 SWAP1 PUSH1 0x0 MSTORE PUSH1 0x20 PUSH1 0x0 KECCAK256 SWAP1 JUMPDEST DUP2 SLOAD DUP2 MSTORE SWAP1 PUSH1 0x1 ADD SWAP1 PUSH1 0x20 ADD DUP1 DUP4 GT PUSH2 0x222 JUMPI DUP3 SWAP1 SUB PUSH1 0x1F AND DUP3 ADD SWAP2 JUMPDEST POP POP POP POP POP SWAP1 POP SWAP1 JUMP JUMPDEST PUSH1 0x40 MLOAD DUP1 PUSH1 0x40 ADD PUSH1 0x40 MSTORE DUP1 PUSH1 0x8 DUP2 MSTORE PUSH1 0x20 ADD PUSH32 0x73636973736F7273000000000000000000000000000000000000000000000000 DUP2 MSTORE POP PUSH1 0x0 SWAP1 DUP2 PUSH2 0x28D SWAP2 SWAP1 PUSH2 0x840 JUMP JUMPDEST POP JUMP JUMPDEST PUSH1 0x0 ADDRESS SWAP1 POP SWAP1 JUMP JUMPDEST PUSH1 0x40 MLOAD DUP1 PUSH1 0x40 ADD PUSH1 0x40 MSTORE DUP1 PUSH1 0x5 DUP2 MSTORE PUSH1 0x20 ADD PUSH32 0x7061706572000000000000000000000000000000000000000000000000000000 DUP2 MSTORE POP PUSH1 0x0 SWAP1 DUP2 PUSH2 0x2DC SWAP2 SWAP1 PUSH2 0x840 JUMP JUMPDEST POP JUMP JUMPDEST PUSH1 0x40 MLOAD DUP1 PUSH1 0x40 ADD PUSH1 0x40 MSTORE DUP1 PUSH1 0x4 DUP2 MSTORE PUSH1 0x20 ADD PUSH32 0x726F636B00000000000000000000000000000000000000000000000000000000 DUP2 MSTORE POP PUSH1 0x0 SWAP1 DUP2 PUSH2 0x323 SWAP2 SWAP1 PUSH2 0x840 JUMP JUMPDEST POP JUMP JUMPDEST JUMP JUMPDEST PUSH1 0x0 DUP1 SLOAD PUSH2 0x335 SWAP1 PUSH2 0x634 JUMP JUMPDEST DUP1 PUSH1 0x1F ADD PUSH1 0x20 DUP1 SWAP2 DIV MUL PUSH1 0x20 ADD PUSH1 0x40 MLOAD SWAP1 DUP2 ADD PUSH1 0x40 MSTORE DUP1 SWAP3 SWAP2 SWAP1 DUP2 DUP2 MSTORE PUSH1 0x20 ADD DUP3 DUP1 SLOAD PUSH2 0x361 SWAP1 PUSH2 0x634 JUMP JUMPDEST DUP1 ISZERO PUSH2 0x3AE JUMPI DUP1 PUSH1 0x1F LT PUSH2 0x383 JUMPI PUSH2 0x100 DUP1 DUP4 SLOAD DIV MUL DUP4 MSTORE SWAP2 PUSH1 0x20 ADD SWAP2 PUSH2 0x3AE JUMP JUMPDEST DUP3 ADD SWAP2 SWAP1 PUSH1 0x0 MSTORE PUSH1 0x20 PUSH1 0x0 KECCAK256 SWAP1 JUMPDEST DUP2 SLOAD DUP2 MSTORE SWAP1 PUSH1 0x1 ADD SWAP1 PUSH1 0x20 ADD DUP1 DUP4 GT PUSH2 0x391 JUMPI DUP3 SWAP1 SUB PUSH1 0x1F AND DUP3 ADD SWAP2 JUMPDEST POP POP POP POP POP DUP2 JUMP JUMPDEST DUP2 PUSH20 0xFFFFFFFFFFFFFFFFFFFFFFFFFFFFFFFFFFFFFFFF AND PUSH2 0x8FC PUSH8 0xDE0B6B3A7640000 DUP4 PUSH2 0x3E4 SWAP2 SWAP1 PUSH2 0x941 JUMP JUMPDEST SWAP1 DUP2 ISZERO MUL SWAP1 PUSH1 0x40 MLOAD PUSH1 0x0 PUSH1 0x40 MLOAD DUP1 DUP4 SUB DUP2 DUP6 DUP9 DUP9 CALL SWAP4 POP POP POP POP ISZERO DUP1 ISZERO PUSH2 0x40F JUMPI RETURNDATASIZE PUSH1 0x0 DUP1 RETURNDATACOPY RETURNDATASIZE PUSH1 0x0 REVERT JUMPDEST POP POP POP JUMP JUMPDEST PUSH1 0x0 DUP2 SWAP1 POP SWAP2 SWAP1 POP JUMP JUMPDEST PUSH2 0x427 DUP2 PUSH2 0x414 JUMP JUMPDEST DUP3 MSTORE POP POP JUMP JUMPDEST PUSH1 0x0 PUSH1 0x20 DUP3 ADD SWAP1 POP PUSH2 0x442 PUSH1 0x0 DUP4 ADD DUP5 PUSH2 0x41E JUMP JUMPDEST SWAP3 SWAP2 POP POP JUMP JUMPDEST PUSH1 0x0 DUP2 MLOAD SWAP1 POP SWAP2 SWAP1 POP JUMP JUMPDEST PUSH1 0x0 DUP3 DUP3 MSTORE PUSH1 0x20 DUP3 ADD SWAP1 POP SWAP3 SWAP2 POP POP JUMP JUMPDEST PUSH1 0x0 JUMPDEST DUP4 DUP2 LT ISZERO PUSH2 0x482 JUMPI DUP1 DUP3 ADD MLOAD DUP2 DUP5 ADD MSTORE PUSH1 0x20 DUP2 ADD SWAP1 POP PUSH2 0x467 JUMP JUMPDEST PUSH1 0x0 DUP5 DUP5 ADD MSTORE POP POP POP POP JUMP JUMPDEST PUSH1 0x0 PUSH1 0x1F NOT PUSH1 0x1F DUP4 ADD AND SWAP1 POP SWAP2 SWAP1 POP JUMP JUMPDEST PUSH1 0x0 PUSH2 0x4AA DUP3 PUSH2 0x448 JUMP JUMPDEST PUSH2 0x4B4 DUP2 DUP6 PUSH2 0x453 JUMP JUMPDEST SWAP4 POP PUSH2 0x4C4 DUP2 DUP6 PUSH1 0x20 DUP7 ADD PUSH2 0x464 JUMP JUMPDEST PUSH2 0x4CD DUP2 PUSH2 0x48E JUMP JUMPDEST DUP5 ADD SWAP2 POP POP SWAP3 SWAP2 POP POP JUMP JUMPDEST PUSH1 0x0 PUSH1 0x20 DUP3 ADD SWAP1 POP DUP2 DUP2 SUB PUSH1 0x0 DUP4 ADD MSTORE PUSH2 0x4F2 DUP2 DUP5 PUSH2 0x49F JUMP JUMPDEST SWAP1 POP SWAP3 SWAP2 POP POP JUMP JUMPDEST PUSH1 0x0 PUSH20 0xFFFFFFFFFFFFFFFFFFFFFFFFFFFFFFFFFFFFFFFF DUP3 AND SWAP1 POP SWAP2 SWAP1 POP JUMP JUMPDEST PUSH1 0x0 PUSH2 0x525 DUP3 PUSH2 0x4FA JUMP JUMPDEST SWAP1 POP SWAP2 SWAP1 POP JUMP JUMPDEST PUSH2 0x535 DUP2 PUSH2 0x51A JUMP JUMPDEST DUP3 MSTORE POP POP JUMP JUMPDEST PUSH1 0x0 PUSH1 0x20 DUP3 ADD SWAP1 POP PUSH2 0x550 PUSH1 0x0 DUP4 ADD DUP5 PUSH2 0x52C JUMP JUMPDEST SWAP3 SWAP2 POP POP JUMP JUMPDEST PUSH1 0x0 DUP1 REVERT JUMPDEST PUSH1 0x0 PUSH2 0x566 DUP3 PUSH2 0x4FA JUMP JUMPDEST SWAP1 POP SWAP2 SWAP1 POP JUMP JUMPDEST PUSH2 0x576 DUP2 PUSH2 0x55B JUMP JUMPDEST DUP2 EQ PUSH2 0x581 JUMPI PUSH1 0x0 DUP1 REVERT JUMPDEST POP JUMP JUMPDEST PUSH1 0x0 DUP2 CALLDATALOAD SWAP1 POP PUSH2 0x593 DUP2 PUSH2 0x56D JUMP JUMPDEST SWAP3 SWAP2 POP POP JUMP JUMPDEST PUSH2 0x5A2 DUP2 PUSH2 0x414 JUMP JUMPDEST DUP2 EQ PUSH2 0x5AD JUMPI PUSH1 0x0 DUP1 REVERT JUMPDEST POP JUMP JUMPDEST PUSH1 0x0 DUP2 CALLDATALOAD SWAP1 POP PUSH2 0x5BF DUP2 PUSH2 0x599 JUMP JUMPDEST SWAP3 SWAP2 POP POP JUMP JUMPDEST PUSH1 0x0 DUP1 PUSH1 0x40 DUP4 DUP6 SUB SLT ISZERO PUSH2 0x5DC JUMPI PUSH2 0x5DB PUSH2 0x556 JUMP JUMPDEST JUMPDEST PUSH1 0x0 PUSH2 0x5EA DUP6 DUP3 DUP7 ADD PUSH2 0x584 JUMP JUMPDEST SWAP3 POP POP PUSH1 0x20 PUSH2 0x5FB DUP6 DUP3 DUP7 ADD PUSH2 0x5B0 JUMP JUMPDEST SWAP2 POP POP SWAP3 POP SWAP3 SWAP1 POP JUMP JUMPDEST PUSH32 0x4E487B7100000000000000000000000000000000000000000000000000000000 PUSH1 0x0 MSTORE PUSH1 0x22 PUSH1 0x4 MSTORE PUSH1 0x24 PUSH1 0x0 REVERT JUMPDEST PUSH1 0x0 PUSH1 0x2 DUP3 DIV SWAP1 POP PUSH1 0x1 DUP3 AND DUP1 PUSH2 0x64C JUMPI PUSH1 0x7F DUP3 AND SWAP2 POP JUMPDEST PUSH1 0x20 DUP3 LT DUP2 SUB PUSH2 0x65F JUMPI PUSH2 0x65E PUSH2 0x605 JUMP JUMPDEST JUMPDEST POP SWAP2 SWAP1 POP JUMP JUMPDEST PUSH32 0x4E487B7100000000000000000000000000000000000000000000000000000000 PUSH1 0x0 MSTORE PUSH1 0x41 PUSH1 0x4 MSTORE PUSH1 0x24 PUSH1 0x0 REVERT JUMPDEST PUSH1 0x0 DUP2 SWAP1 POP DUP2 PUSH1 0x0 MSTORE PUSH1 0x20 PUSH1 0x0 KECCAK256 SWAP1 POP SWAP2 SWAP1 POP JUMP JUMPDEST PUSH1 0x0 PUSH1 0x20 PUSH1 0x1F DUP4 ADD DIV SWAP1 POP SWAP2 SWAP1 POP JUMP JUMPDEST PUSH1 0x0 DUP3 DUP3 SHL SWAP1 POP SWAP3 SWAP2 POP POP JUMP JUMPDEST PUSH1 0x0 PUSH1 0x8 DUP4 MUL PUSH2 0x6F6 PUSH32 0xFFFFFFFFFFFFFFFFFFFFFFFFFFFFFFFFFFFFFFFFFFFFFFFFFFFFFFFFFFFFFFFF DUP3 PUSH2 0x6B9 JUMP JUMPDEST PUSH2 0x700 DUP7 DUP4 PUSH2 0x6B9 JUMP JUMPDEST SWAP6 POP DUP1 NOT DUP5 AND SWAP4 POP DUP1 DUP7 AND DUP5 OR SWAP3 POP POP POP SWAP4 SWAP3 POP POP POP JUMP JUMPDEST PUSH1 0x0 DUP2 SWAP1 POP SWAP2 SWAP1 POP JUMP JUMPDEST PUSH1 0x0 PUSH2 0x73D PUSH2 0x738 PUSH2 0x733 DUP5 PUSH2 0x414 JUMP JUMPDEST PUSH2 0x718 JUMP JUMPDEST PUSH2 0x414 JUMP JUMPDEST SWAP1 POP SWAP2 SWAP1 POP JUMP JUMPDEST PUSH1 0x0 DUP2 SWAP1 POP SWAP2 SWAP1 POP JUMP JUMPDEST PUSH2 0x757 DUP4 PUSH2 0x722 JUMP JUMPDEST PUSH2 0x76B PUSH2 0x763 DUP3 PUSH2 0x744 JUMP JUMPDEST DUP5 DUP5 SLOAD PUSH2 0x6C6 JUMP JUMPDEST DUP3 SSTORE POP POP POP POP JUMP JUMPDEST PUSH1 0x0 SWAP1 JUMP JUMPDEST PUSH2 0x780 PUSH2 0x773 JUMP JUMPDEST PUSH2 0x78B DUP2 DUP5 DUP5 PUSH2 0x74E JUMP JUMPDEST POP POP POP JUMP JUMPDEST JUMPDEST DUP2 DUP2 LT ISZERO PUSH2 0x7AF JUMPI PUSH2 0x7A4 PUSH1 0x0 DUP3 PUSH2 0x778 JUMP JUMPDEST PUSH1 0x1 DUP2 ADD SWAP1 POP PUSH2 0x791 JUMP JUMPDEST POP POP JUMP JUMPDEST PUSH1 0x1F DUP3 GT ISZERO PUSH2 0x7F4 JUMPI PUSH2 0x7C5 DUP2 PUSH2 0x694 JUMP JUMPDEST PUSH2 0x7CE DUP5 PUSH2 0x6A9 JUMP JUMPDEST DUP2 ADD PUSH1 0x20 DUP6 LT ISZERO PUSH2 0x7DD JUMPI DUP2 SWAP1 POP JUMPDEST PUSH2 0x7F1 PUSH2 0x7E9 DUP6 PUSH2 0x6A9 JUMP JUMPDEST DUP4 ADD DUP3 PUSH2 0x790 JUMP JUMPDEST POP POP JUMPDEST POP POP POP JUMP JUMPDEST PUSH1 0x0 DUP3 DUP3 SHR SWAP1 POP SWAP3 SWAP2 POP POP JUMP JUMPDEST PUSH1 0x0 PUSH2 0x817 PUSH1 0x0 NOT DUP5 PUSH1 0x8 MUL PUSH2 0x7F9 JUMP JUMPDEST NOT DUP1 DUP4 AND SWAP2 POP POP SWAP3 SWAP2 POP POP JUMP JUMPDEST PUSH1 0x0 PUSH2 0x830 DUP4 DUP4 PUSH2 0x806 JUMP JUMPDEST SWAP2 POP DUP3 PUSH1 0x2 MUL DUP3 OR SWAP1 POP SWAP3 SWAP2 POP POP JUMP JUMPDEST PUSH2 0x849 DUP3 PUSH2 0x448 JUMP JUMPDEST PUSH8 0xFFFFFFFFFFFFFFFF DUP2 GT ISZERO PUSH2 0x862 JUMPI PUSH2 0x861 PUSH2 0x665 JUMP JUMPDEST JUMPDEST PUSH2 0x86C DUP3 SLOAD PUSH2 0x634 JUMP JUMPDEST PUSH2 0x877 DUP3 DUP3 DUP6 PUSH2 0x7B3 JUMP JUMPDEST PUSH1 0x0 PUSH1 0x20 SWAP1 POP PUSH1 0x1F DUP4 GT PUSH1 0x1 DUP2 EQ PUSH2 0x8AA JUMPI PUSH1 0x0 DUP5 ISZERO PUSH2 0x898 JUMPI DUP3 DUP8 ADD MLOAD SWAP1 POP JUMPDEST PUSH2 0x8A2 DUP6 DUP3 PUSH2 0x824 JUMP JUMPDEST DUP7 SSTORE POP PUSH2 0x90A JUMP JUMPDEST PUSH1 0x1F NOT DUP5 AND PUSH2 0x8B8 DUP7 PUSH2 0x694 JUMP JUMPDEST PUSH1 0x0 JUMPDEST DUP3 DUP2 LT ISZERO PUSH2 0x8E0 JUMPI DUP5 DUP10 ADD MLOAD DUP3 SSTORE PUSH1 0x1 DUP3 ADD SWAP2 POP PUSH1 0x20 DUP6 ADD SWAP5 POP PUSH1 0x20 DUP2 ADD SWAP1 POP PUSH2 0x8BB JUMP JUMPDEST DUP7 DUP4 LT ISZERO PUSH2 0x8FD JUMPI DUP5 DUP10 ADD MLOAD PUSH2 0x8F9 PUSH1 0x1F DUP10 AND DUP3 PUSH2 0x806 JUMP JUMPDEST DUP4 SSTORE POP JUMPDEST PUSH1 0x1 PUSH1 0x2 DUP9 MUL ADD DUP9 SSTORE POP POP POP JUMPDEST POP POP POP POP POP POP JUMP JUMPDEST PUSH32 0x4E487B7100000000000000000000000000000000000000000000000000000000 PUSH1 0x0 MSTORE PUSH1 0x11 PUSH1 0x4 MSTORE PUSH1 0x24 PUSH1 0x0 REVERT JUMPDEST PUSH1 0x0 PUSH2 0x94C DUP3 PUSH2 0x414 JUMP JUMPDEST SWAP2 POP PUSH2 0x957 DUP4 PUSH2 0x414 JUMP JUMPDEST SWAP3 POP DUP3 DUP3 MUL PUSH2 0x965 DUP2 PUSH2 0x414 JUMP JUMPDEST SWAP2 POP DUP3 DUP3 DIV DUP5 EQ DUP4 ISZERO OR PUSH2 0x97C JUMPI PUSH2 0x97B PUSH2 0x912 JUMP JUMPDEST JUMPDEST POP SWAP3 SWAP2 POP POP JUMP INVALID LOG2 PUSH5 0x6970667358 0x22 SLT KECCAK256 0xD9 0x49 0x2D 0xC9 PUSH8 0xDA4FB98671A296AF SWAP4 0xA7 DUP16 0xD8 PUSH15 0x465286179F04851AF8226367DB0B64 PUSH20 0x6F6C634300081200330000000000000000000000 "
				},
				"gasEstimates": {
					"creation": {
						"codeDepositCost": "497800",
						"executionCost": "infinite",
						"totalCost": "infinite"
					},
					"external": {
						"changeToPaper()": "infinite",
						"changeToRock()": "infinite",
						"changeToScissors()": "infinite",
						"deposit()": "164",
						"getAddress()": "452",
						"getBalance()": "340",
						"getPlayersChoose()": "infinite",
						"playersChoose()": "infinite",
						"withdraw(address,uint256)": "infinite"
					}
				},
				"methodIdentifiers": {
					"changeToPaper()": "4fc6b1a4",
					"changeToRock()": "8f035f35",
					"changeToScissors()": "31c53969",
					"deposit()": "d0e30db0",
					"getAddress()": "38cc4831",
					"getBalance()": "12065fe0",
					"getPlayersChoose()": "20fb9f6b",
					"playersChoose()": "d358f4e3",
					"withdraw(address,uint256)": "f3fef3a3"
				}
			},
			"storageLayout": {
				"storage": [
					{
						"astId": 4,
						"contract": "contracts/rps.sol:Demo",
						"label": "playersChoose",
						"offset": 0,
						"slot": "0",
						"type": "t_string_storage"
					}
				],
				"types": {
					"t_string_storage": {
						"encoding": "bytes",
						"label": "string",
						"numberOfBytes": "32"
					}
				}
			},
			"userdoc": {
				"kind": "user",
				"methods": {},
				"version": 1
			}
		}
	}
}